:020000040800F2
:1000000000000120ED94050889950508ADB90108A7
:1000100005B80108899505088995050800000000C4
:1000200000000000000000000000000089950508A5
:10003000899505080000000089950508B5AA010802
:100040008995050889950508899505088995050804
:1000500089950508899505080DA5000815A50008CE
:100060001DA5000825A500082DA5000805A300086A
:1000700015A3000829A300083DA3000851A3000808
:1000800065A3000879A300088995050889950508E6
:1000900089950508899505088995050835A50008FD
:1000A00079E0000865DF000889E0000855DF0008F6
:1000B0008DDF00089DDF0008ADDF0008159E0008F9
:1000C000099E0008499E00083D9E00088995050884
:1000D0008995050801AA01080DAA010819AA0108B5
:1000E0003DA50008899505088995050899E000084F
:1000F00051E000088995050841E000088DA300083B
:100100008995050879D10008BDDF000889950508A3
:1001100025AA010831AA0108CDDF0008750B0508E2
:10012000A1A30008B5A30008C9A30008DDA3000827
:10013000F1A3000800000000000000000000000023
:10014000000000000000000000000000F9000508A9
:1001500005A4000819A400082DA400083DAA010860
:100160007D9E0008719E00088995050889950508FF
:100170008995050889950508000000000000000029
:1001800089950508899505088995050889950508C3
:1001900089950508899505080000000089950508DE
:1001A0000000000000000000000000008995050824
:1001B00089950508899505080000000000000000E9
:1001C000000000000000000000000000000000002F
:1001D00000000000000000000000000089950508F4
:108000001B4B1C4A03F5727C016803E063452BD0CF
:1080100053F82C2F9142F9D170B593F804E04279CE
:1080200096450AD0634505D053F82C2F9142F4D0E1
:108030006345F9D14FF0FF3070BD9E468468002241
:10804000DEF80C50A54208D001320EF10C0E032AC6
:10805000E8D0DEF80C50A542F6D1DEF81050C66824
:10806000B542F1D150B270BD4FF0FF30704700BF44
:10807000E0B00508000001404368426D30B49A61E9
:10808000EFF31182502383F312884168D2B2856CDA
:108090000B68046D23EA050323430B6082F3118808
:1080A000436981681A68096822F00102D0E908541E
:1080B0001A60826A1D605C615A60D0E90B429C6064
:1080C000DA600023B0F86C2030BCCA6203777047D6
:1080D00030B5FAB18E464FEA014C034600F1C005B7
:1080E000002419680C3353F8042C43F8084C41EA77
:1080F0000C0142EA0E02AB4243F80C1C43F8042C7C
:10810000EFD1D0F8C03043EA0E03C0E93144C0F8E3
:10811000C03030BD4FEA014E8C46DEE783695969B5
:10812000B3F810C00A6830B49C6822F001022468D9
:108130000A60E26822EA0C02E260027D04681F2AFB
:1081400006D9203A082065689040284242D0FEE7D0
:108150000820256890402842F9D1202000FA02F238
:10816000A260254A1278002A32D01A7F012A36D01E
:10817000D3F800210132C3F80021EFF3118150221E
:1081800082F312885868C9B29D6C0268DC6C22EADE
:1081900005022243026081F311885A699968D3E984
:1081A0000D40096814605061D3E90F40546090603D
:1081B0005C6CB3F8B400D4600124C862106820433A
:1081C00010601A8A1C7783F8FD40CB681343CB609C
:1081D00030BC7047202000FA02F2E260C1E70022C2
:1081E000D3F8040183F8FD2001300A68C3F80401C4
:1081F00022F001020A60EBE78001002010B40C4C71
:108200006368002B11DD002004F1080C0146DCF846
:10821000AC3003F1C00259600C339342FBD1013002
:1082200063680CF5867C8342F1DC5DF8044B704793
:1082300080010020704700BF024B03EB401090F814
:108240005504704780010020704700BF0B4890F82C
:108250006C1589B101EB4101002300F27450490013
:1082600010B41C4650F82320063302B114608B4230
:10827000F8D15DF8044B7047704700BF80010020C3
:108280000B4890F86C1589B101EB4101002300F215
:108290007450490010B41C4650F82320063302B134
:1082A00014609942F8D15DF8044B7047704700BFE5
:1082B0008001002001207047034B00EB400003EBDE
:1082C000C00090F88505704780010020204890F894
:1082D0006C35002B3AD0002200F274534FF02C0C76
:1082E0002DE9F0434FF0500E1A4E1B4D144607E097
:1082F00053F8181B01320C6090F86C15914223DD85
:10830000197C0029F4D05F684FF0FE08B90AA1F586
:1083100080115229294498BF91F8F483EFF3118119
:108320008EF31288D7F824900CFB0868C9B209F1C3
:108330000109C8F82890D7F8148048F00108C7F858
:10834000148081F31188D3E7BDE8F083704700BF44
:108350008001002030190120E0B0050807EE900AE6
:10836000B8EE670A704700BFBCEEC00A10EE103AC4
:1083700098B27047C84BD3E9A51270B58C0FC2F301
:10838000072C100E83F8C842C1F38364000183F800
:10839000C942C1F3016483F8CA42C1F3074483F8B8
:1083A000CB42C1F30724C9B283F8CC42C2F30354D1
:1083B00083F8CD12A3F8CE02C2F3C030B3F8CE12C8
:1083C00089B22143C2F30344A3F8CE12C2F3403171
:1083D00083F8D042C2F3803483F8D102002083F8BE
:1083E000D24283F8D312C2F3003183F8D41293F847
:1083F000201383F8D502012940F2F380022900F00E
:10840000C580D3F89C122A204FEA4C0C83F8E14235
:10841000C1F3C01201F07F010CF07E0C83F8E2C2C0
:108420004FF0010C93F8E2421443D3F8A02283F8F2
:10843000E242D40F83F8E312910D83F8E442C2F3D1
:10844000417401F00C01C2F3815583F8E542C2F397
:10845000826483F8E64283F8E71293F8E712D3F8D0
:10846000A442294383F8E712C2F3405183F8E8128B
:10847000002183F8E912C2F3004183F8EA12C2F343
:10848000C03183F8EB12C2F3803183F8EC12C2F3EF
:10849000403183F8ED12C2F3003183F8EE12C2F3DB
:1084A000812183F8EF12C2F30121C2F3460283F85F
:1084B000F012C4F3074183F8F122220E090283F877
:1084C000F2C283F8F422C4F30722A3F8F6122406BA
:1084D000B3F8F61289B21143A3F8F612D3F8A81232
:1084E000C3F8F8420C0ED3F8F82242EA0442C3F86B
:1084F000F8220A0AD3F8F84202F47F422243C1F379
:108500000724C9B2C3F8F822D3F8F852D3F8AC2242
:108510002C43C3F8F84283F8FC12110E83F8FD12C5
:10852000110C0906C3F800131102D3F800430A46E0
:1085300001F47F01214392B2D3F8B042C3F8001393
:10854000D3F800130A43C3F80023C4F30352D3F84B
:10855000001341EA1461C3F8001393F804131143A4
:10856000C4F3072283F80413210A01F47061A3F80D
:108570000613B3F8061389B21143C4F34602A3F8F5
:10858000061383F8082383F809C370BD1204D3F8D7
:108590009C1202F47C12C1F3072CC3F8D8220A0EF5
:1085A000D3F8D84244EA0224C1F30742C3F8D842C0
:1085B000D3F8D84222434FF40074C3F8D822D3F83A
:1085C000D822C3F81843013240F10004A40244EA5F
:1085D00092549202C3F81443C1F38034C3F81023B9
:1085E00012E74FEA8C2CD3F89C1292004FF0010E48
:1085F0000CF44064C1F3C26502F47F72C1F3072C2E
:10860000C3F8D842D3F8D8422243CC0BC3F8D822BF
:1086100004F00602D3F8D84244EA9174C3F8D84271
:10862000C1F3026483F8DC5283F8DD42C1F34254A3
:1086300083F8DE42C1F3824483F8DF42C1F3C034E1
:1086400083F8E02293F8E022224383F8E022D3F873
:10865000D84293F8E02293F8D05202320EFA05F590
:108660000EFA02F2C3F81853D617A2FB052E05FB2B
:1086700006EE04FB0EEE0134A2FB0424A644520ACB
:10868000C1F3803442EACE52C3F810234FEA5E228F
:10869000C3F81423B8E600BF30190120B4224FF408
:1086A000A57C4FF4EB71002382801022A0F802C059
:1086B0004FF4E17C02814FF48772C1809621828160
:1086C00044220370A0F80AC0C1814382028270472D
:1086D00070B50E4E0D461446D6F878333BB11A6885
:1086E0009B881269134096F8752352B15BB9FFF766
:1086F00041FED6F810234FF4007300202A60238037
:1087000070BD002BF3D14FF0FF3070BD3019012048
:10871000002070470020704738B5074B14460D46BF
:10872000D3F818341B6A984702464FF400730020B0
:1087300012682A60238038BD3019012008B5074B24
:10874000D3F8183433B15B69984780F00100404298
:1087500040B208BD4FF0FF3008BD00BF3019012006
:10876000002070472DE9F04123B3164688469F1834
:10877000144DD5F81844002341463046A4681A46E3
:10878000A0470028F5D0D5F8183433B15B69984775
:1087900020B9D5F81834002BF8D1FEE7013608F5DA
:1087A0000078B742E5D1D5F81C340020C5F8203454
:1087B000BDE8F081034D0020D5F81C34C5F8203405
:1087C000BDE8F081301901202DE9F0415BB3164678
:1087D0000F4603EB0208184C04E0D4F8181419B142
:1087E0004B699847D4F8181400230D693046394670
:1087F0001A46A8470028F0D1D4F8183433B15B6981
:10880000984720B9D4F81834002BF8D1FEE7013688
:1088100007F50077B045E5D1D4F81C340020C4F842
:108820002034BDE8F081044C0020D4F81C34C4F896
:108830002034BDE8F08100BF3019012000207047CE
:10884000034B93F84803003818BF0120704700BF5E
:10885000301901201C4AD2F878336BB1186892F8AD
:1088600075139B880069034021B12BB1002382F866
:1088700048337047002BF9D092F84833032B0FD8B8
:1088800092F83C330133DBB2072B82F83C33EDD84E
:10889000D2F81C140123C2F8381382F84833704709
:1088A000D2F8243409489908B0EB930F4FF0020333
:1088B00006D249085B0081429BB201D9FF2BF8D94F
:1088C000A2F88033DCE700BF30190120801A0600CF
:1088D000826D136A5B681B78FF2B08D090F8F0302C
:1088E000013BDBB280F8F0301BB101207047002063
:1088F0007047126A0220526813707047836D1B6ABA
:108900005B681B78FF2B0AD190F8F030002B03F145
:10891000FF3280F8F02014BF0120022070470020B1
:10892000704700BF034B93F84803032894BF00200F
:108930000120704730190120004870477C1C01203D
:10894000034B93F84803003818BF0120704700BF5D
:1089500030190120034B93F84803032894BF0020EB
:108960000120704730190120004870477C1C01200D
:10897000184B002030B49C7B14B11D688D4205D08B
:10898000013010330B28F6D130BC7047AAB1124B1E
:1089900003EB40218A4201D1022C19D00F4B93F8EE
:1089A000E4278AB10E4B01225A7000F5B170012202
:1089B00003EB00139A7130BC7047094B00F5B1709E
:1089C00003EB00139A71DFE7012283F8E427E9E75C
:1089D000183BEAE7D8430120D82D0120C03D0120F3
:1089E000C02D0120002330B41C4C04F5C36084F872
:1089F000D03603E0013310300B2B15D005688D42C3
:108A0000F8D190F80EC0BCF1030FF3D1C2B11449F4
:108A100001EB4320824209D1A1F1180203F5B173A1
:108A2000012102EB0313997130BC704794F8E427DD
:108A300012B9012284F8E4270A4A01215170EDE7B6
:108A4000D4F8CC1603F5B173064A0420013102EBC9
:108A50000313C4F8CC169871E6E700BFC03D0120AF
:108A6000D82D0120C02D01202DE9F041304F07EB1A
:108A7000401898F854340BB9BDE8F08100EB80033E
:108A80000E460021044607EB4313450193F83626B2
:108A900083F8361688F83A2452F012FBB8BB3D44EE
:108AA0002448A5F8386400EB441052F0E9FA3B780A
:108AB000D5F85024A3B1D5F83C140124D2F8AC3039
:108AC0008C4003F1C001420010F4004F90B202D17B
:108AD0005A6822435A600C339942F4D1BDE8F081C0
:108AE000D5F83C140124D2F8AC3001F1100203F1A6
:108AF000C0019440420010F4004F90B202D15A6875
:108B000022435A600C339942F4D1BDE8F0810A4BFC
:108B100093F8A02402EB420203EBC203234493F830
:108B20004D64002EBBD0012388F83A34B7E700BF6C
:108B300080010020B8050020301901202DE9F84FF0
:108B4000374D2B7813B90120BDE8F88F354F05F567
:108B5000876A05F634360024D7F81CB44FF6FE7940
:108B60004FF6FF7815E0B0F5606F4AD0B081B0EBFA
:108B700008012D4B4FF05C005A4618BF012100FB45
:108B8000043010F0B3FE01340AF1200A1436082C28
:108B900031D0D5F81C2FA2422DDDDAF81800DAF812
:108BA0000420D0E93D0152F08FFA484597F8292476
:108BB00014D0542A04D1B7F82C240132A7F82C245D
:108BC000D5F83C2B404502F10102C5F83C2BCAD137
:108BD000D5F8382B0132C5F8382BC8E7542AD2D142
:108BE000B7F82E2401340AF1200A14360132082C79
:108BF000A7F82E24CDD10123012085F8383CBDE80B
:108C0000F88F97F8A02402EB420207EBC20222443D
:108C100092F84D240D2AA9D18022B277A7E700BF90
:108C20008001002030190120BC0D00202DE9F843FF
:108C300011F094FF2F4E4FF0000C0746DFF8BC8078
:108C40002D4C716800294ADD00234FF486701D46C3
:108C500000FB0362013392F80521994245EA0205BF
:108C6000F6D145EA0C0C5FFA8CF9D8F80430C3F35E
:108C700008038BBBEFF3118373BB4FF0E02CD4F8E8
:108C80001C34DCF81810D4F81C249342F7D1D4F823
:108C9000A4249142F3D8D4F8A8C44FF47A7202FB0A
:108CA0000CF0401AB0FBFCF002FB0300C31BB3F551
:108CB000FA6FCCBF4FF0000C05F0010CBCF1000FB7
:108CC000BFD1B9F1000F04D00B4B93F82924542ADB
:108CD00008D04846BDE8F88311F012FFE6E7E14608
:108CE0000025C2E7B3F8302448460132A3F8302407
:108CF000BDE8F883800100203019012000ED00E07C
:108D000010B5044651F032FA0146204689B2BDE85A
:108D10001040A9E638B50B4D00EB400005F2745346
:108D2000C40003EBC0032C4493ED027AD3ED037A25
:108D3000E7EE007AB0EE670A51F018FAD4F874350D
:108D4000186038BD800100202DE9F04152F0A4F9EF
:108D500080B31B4F7D68002D12DD3846002410F8CB
:108D6000086BA046013416B1037F012B1DD0426968
:108D7000AC4200F58670136843F001031360F1D133
:108D800011F0ECFED7F8204F002C0CDD0D4B03EB5F
:108D9000C4041968083333F8042CC8689C4242EABA
:108DA0000002CA60F5D1BDE8F08180F8FC80FFF7D1
:108DB00063F9DCE74BF0EEFA0028CAD1BDE8F08198
:108DC00080010020A41000200C4AF8B513685569F2
:108DD0002B4003EA000555617DB1094F0126B5FA24
:108DE00085F4C4F11F0407EB840306FA04F4D3F8F6
:108DF000B00403689847A543F1D1F8BD003C014099
:108E0000301901200269C3682DE9F04712EA03090D
:108E10002AD005460E464FF000474FF00008B9FA39
:108E200089F327FA03F21B3BD24309EA02092A61BC
:108E3000042B16D8DFE803F03B30251A0300B36A91
:108E4000002B3FD003F1FF3AC6F828801FFA8AFAB8
:108E5000746A34B123682046514698476468002CF0
:108E6000F8D1B9F1000FDAD1BDE8F08770680028B9
:108E7000F7D0696B036889B29847B9F1000FCED17A
:108E8000F2E7B0680028ECD0A96B036889B2984774
:108E9000B9F1000FC3D1E7E7F0680028E1D0E96B32
:108EA000036889B29847B9F1000FB8D1DCE730699F
:108EB0000028D6D0296C036889B29847B9F1000F11
:108EC000ADD1D1E7E96A1FFA81FAC1E7836910B52C
:108ED0001A4C04EB8303D3F8100546F04FF8B4F8AE
:108EE00030350C2B0ED8DFE803F0070D0D0D220DE9
:108EF0000D0D1B0D0D0D1400D4F8F024D36823F4D0
:108F00000073D3600122002384F82D2584F83235C4
:108F100010BDD4F8F024D36823F48053D360F1E774
:108F2000D4F8F024D36823F40063D360EAE7D4F8DC
:108F3000F024D36823F48063D360E3E73019012081
:108F400080699C3046F01AB8830AA3F58013522B2F
:108F500052D8F0B504466A4885B0034493F8F40348
:108F60000D2847D8674D860105EB8013D3F834757B
:108F7000A7423FD00139C3F8344589B2C3F8401540
:108F8000D5F82414B1FBF2F2013AC3F838250022D7
:108F9000C3F84425C3F83C25C3F8482593F8712548
:108FA00002F0FF014AB358490223AF1901EB8011C7
:108FB000204687F87135043146F04AFD012387F8D1
:108FC0007135524B9C421BD0B4F1804F18D0A3F5A1
:108FD0007C439C4275D003F580639C4271D04C4A1F
:108FE00003F57C439C4218BF944249D003F570536B
:108FF0009C4245D005B0F0BD704783F87015D2E7AC
:1090000000234FF48051AA19CDE9001392F870158E
:109010000129CDE90233EDD00221D2F83405012433
:1090200082F871153B4987683940816082F8714543
:1090300082F870350023AA19CDE90033029392F823
:109040007035012BD6D0D2F8343502212F4882F862
:10905000711583425A6899684ED000F5806083424A
:109060004AD022F0700221F08001354401205A607C
:109070009960002385F8710585F8703505B0F0BD5D
:1090800000214FF48053CDE90031AB1993F87025DE
:10909000012ACDE90211ADD0D3F83405022283F8BC
:1090A00071251C4A87683A4082601B4A83F8701514
:1090B0000121944283F87115BCD0154B9C4299D183
:1090C000B8E700224FF48051AB19CDE9001293F8B4
:1090D00070150129CDE902228CD00221D3F8340584
:1090E000012483F871150B4987683940816083F842
:1090F000714583F870259DE722F47002B1E700BF47
:10910000E0B0050830190120641E01200000014074
:10911000000C00408800FEFF0004014010B50E4C1A
:10912000D4F8F4383BB194F800191A68C9079B8841
:1091300048BF1B0493614AF019FA02E05B69984743
:1091400020B9D4F81834002BF8D1FEE7D4F81C3439
:109150000020C4F8203410BD3019012010B58CB0A7
:10916000114C002301220DF10701844604F55F70C4
:10917000049203910D498DF82820069102A90293CB
:109180008DF8143009930B9384F814C4CDE9073398
:1091900010F096FDD4F87C23136A002BFCD19DF8C7
:1091A00007000CB010BD00BF30190120FD88000879
:1091B00070B5054690B008200C46FFF7CFFFFF289A
:1091C00026D0FE2802D0022010B070BD0023124E1F
:1091D0000220012201A98DF810308DF824300F9360
:1091E00003948DF83820CDE9073006F55F70CDE99E
:1091F0000135CDE90533CDE90A33CDE90C3310F063
:109200005FFDD6F87C33186A0028FCD110B070BD21
:10921000012010B070BD00BF3019012030B591B0F1
:1092200000231D4DFD200DF1030101228DF80300E7
:1092300005F55F70C5F844338DF810308DF8243093
:109240000F9303928DF83820CDE9053101A9CDE9BE
:109250000133CDE90732CDE90A33CDE90C3310F003
:109260002FFDD5F87C331C6A002CFCD10120FFF7C0
:1092700075FFFF2809D00922D5F81C34204685F84F
:109280004823C5F8383311B030BD0423022085F8D7
:10929000483311B030BD00BF3019012010B504466D
:1092A00092B0080E4FF0950C8DF8081000238DF841
:1092B0000500080C01228DF809C08DF80600080A87
:1092C000062144F0400C8DF8070001A80591039099
:1092D0000DF10300174904938DF818300793089394
:1092E0008DF82C3011938DF804C00A9209908DF8F6
:1092F0004020CDE90C13CDE90E334AF007F980F098
:109300000103DBB203B18CB90B4C082303A904F5AC
:109310005F7084F8143410F0D3FCD4F87C23136A03
:10932000002BFCD19DF8030012B010BDFF2012B03D
:1093300010BD00BFFD88000830190120817899B167
:109340000C48D0F80439102B0FD003EB4302013343
:109350004FF0200C0244C0F80439012382F80819A8
:1093600082F809C982F80A3970470521002011F0F6
:10937000C3BF00BF301901202DE9F043BD4C93B0AD
:1093800094F87463002E00F0C78194F8483304F514
:1093900059775A1E082A00F25C81DFE812F0350086
:1093A0007000BB005A0148016F011C005A010900FE
:1093B0004AF0ACF80546002840F04683D4F838332C
:1093C000D4F81C24FA33934280F04081FFF742FA2C
:1093D00094F84833DDE74AF099F80028EED0D4F845
:1093E00044330022012B84F83C2340F24083D4F81C
:1093F0004023013B082106460132C4F8443384F877
:109400004813C4F840230EE100210846FFF746FF49
:10941000D4F87C230546136A002BFCD10A2011F0F6
:10942000CBFBD4F8843313B11A689B889361012D68
:1094300040F00C814FF0000840F2AB11082084F896
:109440003D83FFF72BFF052800F0EC81012800F099
:109450009F81D4F87C23136A002BFCD10A2011F0E1
:10946000ABFBD4F8843313B11A689B88936194F8EA
:109470003D33002B00F0E482022384F8483394F853
:109480003D3300213720022B0CBF4FF080450D46A5
:10949000FFF704FF29202946FFF700FFD4F87C23BB
:1094A0000546136A002BFCD10A2011F085FBD4F885
:1094B000843313B11A689B889361002D40F0C680F5
:1094C00094F83D33022B00F0198284F83E530021BA
:1094D0000920FFF7E3FE002800F0A9810025D4F859
:1094E0007C23136A002BFCD10A2011F065FBD4F811
:1094F000843313B11A689B889361002D00F0A68015
:1095000000210A20FFF7CAFE002840F0C48103238F
:1095100084F84833102103A8FFF74AFE002840F0E2
:109520009580BDF80D209DF8143052BA9DF80C10AE
:10953000DDF81500A4F850239DF80F2000BA84F838
:10954000521303F00F0184F853239DF8102084F880
:109550005D1384F854239DF81120C4F8580384F84F
:1095600055239DF8122084F856239DF8132084F883
:1095700057231A099DF8193084F85C231B019DF8C4
:109580001A20DBB243EA121302F00F0203F5FA636A
:1095900084F86023D4F87C23A4F85E33136A002B8C
:1095A000FCD10A2011F008FBD4F8843313B11A68F7
:1095B0009B88936194F83E33B3B94FF40071102047
:1095C000FFF76CFED4F87C230546136A002BFCD110
:1095D0000A2011F0F1FAD4F8843313B11A689B8889
:1095E0009361002D7FF4F2AED4F8243422499A0816
:1095F000B1EB930F4FF0020306D252085B008A4290
:109600009BB201D9FF2BF8D904220021A4F88033A2
:109610001346C4F8441384F84823082B18BF042BBE
:109620000CBF01260026304613B0BDE8F0834FF48E
:109630000071D4F82403FFF7BBFD012800F0CA80B5
:10964000022800F0CF80002800F0368194F84833DB
:109650005A1ED2B2022AE0D8D4F81C34D4F83823E7
:109660009B1AC82B00F289800026304613B0BDE853
:10967000F08300BF3019012040787D01D4F87C23AD
:10968000117B136A00294DD05269002A4AD094F800
:109690000424002A46D0B3FA83F35B09002BD5D00B
:1096A00002AA002303A9B24803920222ADF80830AF
:1096B00005920DF107020493099201228DF81830EA
:1096C000079308938DF82C3011930A928DF840205F
:1096D000CDE90C33CDE90E3310F0F2FAD4F87C3337
:1096E0001D6A002DFCD19DF8073003F01F03052BE8
:1096F00000F09081FFF7AEF8D4F83083B8F1000F96
:1097000000F08D80D4F834332A46D4F82813012091
:10971000C04794F848333CE6304684F8486313B0B9
:10972000BDE8F083D4F8243303A994F82C2390489F
:1097300003EB02220023CDE90323CDE90733CDE972
:1097400009330C9301238DF818308DF82C304FF429
:109750008073059310F0B4FAD4F87C23136A002BBD
:10976000FCD194F82C230132D2B2A2F1020384F886
:109770002C23B3FA83F35B0990E7FFF76BF894F8B7
:109780004863042E18BF082E0CBF012600264AE7A6
:1097900002AB03A97648049304238DF82C50CDF82E
:1097A0000C808DF81880CDF830800593CDE90788BE
:1097B000CDE9098810F084FAD4F87C23136A002BD1
:1097C000FCD19DF80B30AB2B7FF445AE022384F81F
:1097D0003D3340E6D4F83833D4F81C246433934244
:1097E000BFF434AFD4F87C23136A002BFCD10A20D9
:1097F00011F0E2F9D4F8843313B11A689B889361AD
:10980000FFF728F8D4F830534DB10022D4F83433A0
:10981000D4F828131046A84794F84833B9E594F8CB
:109820004833B6E5D4F87C2384F83D5313E6102181
:109830003846FFF7BDFC00287FF450AE94F8733330
:10984000DB077FF54BAE94F86423921100F094800F
:10985000012A7FF443AE94F86B231621DFF814C17C
:1098600002259200D2B2C5F108038B4228BF0B46F5
:10987000C3F108059840C91A42FA05F24FF00005F5
:1098800040EA02001CF8012FEDD1431C35469B0233
:10989000C4F84C3323E6D4F87C23136A002BFCD1A4
:1098A0000A2011F089F9D4F88433002B3FF48EADEF
:1098B0001A689B88936189E5D4F87C23136A002B8E
:1098C000FCD10A2011F078F9D4F8843313B11A6866
:1098D0009B88936104230020D4F8305384F84833E4
:1098E00084F83C03002D3FF49EAED4F83433D4E921
:1098F000C921A84794F848335A1EAAE629463A20B7
:10990000FFF7CCFC02AB804603A90493042318485C
:109910000593012303958DF82C308DF818500C9584
:10992000CDE90755CDE9095510F0CAF9D4F87C33D3
:109930001A6A002AFCD1B8F1000F12D11A6A002A63
:10994000FCD10A2011F038F9D4F8843313B11A6825
:109950009B889361029B1BBAC3F3807384F83E33E8
:10996000B5E51A6A002A9BD01A6A002AF9D197E74E
:10997000AC1C01209B1C012094F86933012094F851
:109980006D134FF0030C03F00F03DFF828E189019A
:109990009840CDB20621C1F10803634528BF634654
:1099A000C3F108019A40BCEB030C45FA01F11EF823
:1099B000015F42EA01024FF00001ECD194F86A1312
:1099C0000232DFF8F4800C2589014FF0060EC9B28F
:1099D000CEF108034FF0000EAB4228BF2B46C3F177
:1099E00008090CFA03FCED1A41FA09F141EA0C0CE2
:1099F00018F8011FECD10CF10103C1173546934053
:109A0000A3FB000203FB0122400A40EAC250C4F853
:109A10004C0364E50722D4F81C34D4F8306384F88E
:109A20004823C4F83833002E3FF4FDADD4F8343366
:109A30000120D4E9C921B04794F848335A1E08E6FA
:109A40001E4684F84833EEE5D4F87C23136A002BD5
:109A5000FCD10A2011F0B0F8D4F8843313B11A689D
:109A60009B88936104232E4684F84833DBE516D0A7
:109A70000423D4F87C2384F84833136A002BFCD1E8
:109A80000A2011F099F8D4F88433002B3FF4DEADAE
:109A90001A689B88936194F848335A1ED9E5FFF7FA
:109AA000BDFB02287FF4D2ADD4F87C331A6A002AB9
:109AB000FCD1E5E79D1C01209A1C01202DE9F04115
:109AC0000546884617461E46304C94F8480304283D
:109AD00039D0082807D1D4F84033AB4206D0FFF77D
:109AE0009DFB0228F1D00120BDE8F081FC23D4F8D1
:109AF0007C2384F83839117B254BC3F82C8051B175
:109B0000526942B194F80424002A0CBF4FF48072C9
:109B10004FF4007201E04FF480725A631D491E48F1
:109B200010F0CEF8012206230020C4F82483C4F8E4
:109B30002853C4F83073C4F8346384F82C2384F8B1
:109B40004833BDE8F08194F83E3353B969021820D8
:109B5000FFF7A4FB38B994F84833082BC6D0FE238E
:109B6000C5E72946F3E7D4F87C23136A002BFCD120
:109B70000A2011F021F8D4F8843313B11A689B88B5
:109B80009361FEF767FE0320AEE700BF30190120A6
:109B90000000012004000120AC1C012070B5224E01
:109BA00005460C4696F84833042B09D0082B1FD1E4
:109BB000D6F84033834235D0FFF730FB022817D167
:109BC00000213720FFF76AFB21461720FFF766FBCD
:109BD000B0B996F83E336BB969021920FFF75EFB06
:109BE00070B908230220C6E9D05486F8483370BD06
:109BF000012070BD29461920FFF750FB0028F0D046
:109C0000D6F87C23136A002BFCD10A2010F0D4FF75
:109C1000D6F8843313B11A689B889361FEF71AFE55
:109C2000032070BD022070BD301901202DE9F843DA
:109C3000224D80468946174695F848431E46042C17
:109C400008D0082C02D00020BDE8F883FFF7E6FA20
:109C50000228F8D195F83E33B3B141461120FFF701
:109C60001DFBC0B90522D5F81C340120C5F824938A
:109C7000C5F82883C5F83073C5F8346385F84823E0
:109C8000C5F83833BDE8F8834FEA48211120FFF7C3
:109C900005FB0028E6D0D5F87C331C6A002CFCD1EB
:109CA0000A2010F089FFD5F88433002BCBD01A6836
:109CB00020469B889361BDE8F88300BF30190120DE
:109CC00030B490F8443000F10801484A012BC2F842
:109CD0003C196ED083684649DC68464D24F4600424
:109CE000AB42DC60DC6844F46004DC609C6B24F410
:109CF00040149C639C6B44F480149C639C6B24F420
:109D0000F8449C639C6B44F488449C639C6824F4F2
:109D100070249C609C689C609C6824F440149C6047
:109D20009C689C605C6824F480645C605C6824F4DB
:109D300080545C605C6901EA0401596159695961A8
:109D400047D0DC682A4924F0E064DC60DC6844F039
:109D5000E064DC609C6B24F440149C639C6B44F4D2
:109D600080149C639C6B24F478249C639C6B44F467
:109D700010249C639C6824F470249C609C689C6004
:109D80009C6824F440149C609C689C605C6824F48B
:109D900080645C605C6824F480545C609C69214051
:109DA000144C9961A3429969996118D0002380F8F5
:109DB00044301148114B848DC18D408D091BC2F870
:109DC0004449C2F8400993FBF1F330BCC2F848396A
:109DD00070470B4C616841F400016160B1E70849CC
:109DE0004B6843F400034B60E0E700BF30190120EB
:109DF00000F0FFFF00200140007AF01F80380100D2
:109E000000230140704700BF014845F0C7BA00BFBA
:109E100090220120084810B4D0F86039D0F8944955
:109E200099691A682CB1234600F516605DF8044B59
:109E300018475DF8044B704730190120014845F080
:109E4000ADBA00BFF0220120084810B4D0F8C039E4
:109E5000D0F8F44999691A682CB1234600F51C60C2
:109E60005DF8044B18475DF8044B7047301901202A
:109E7000014845F093BA00BF50230120084810B4B0
:109E8000D0F8203AD0F8544A99691A682CB1234680
:109E900000F522605DF8044B18475DF8044B7047ED
:109EA0003019012030B40469002341684025E4687A
:109EB00082690C3154624469956053609363116008
:109EC000C2E90333C2E90533C2E90733C2E90A3301
:109ED000C2E90C3384B1C269E068936350621160D7
:109EE000C2E90133C2E90333C2E90533C2E90733EA
:109EF000C2E90A33C2E90C3330BC7047114A037A15
:109F00000168D35C10B4CC58CA1824F00104CC50BA
:109F10001368DB07FCD4037D1F2B09D9203B2022CB
:109F20005DF8044B02FA03F343F01803CB6070476B
:109F300020225DF8044B02FA03F343F018038B6010
:109F4000704700BF242C0608F0B50668356A002962
:109F50005CD12F68AC68D6F818E0002F5FD0364B84
:109F60003B40B3F1005F61D007F01F0104F11F0314
:109F700027F01F02194421F01F01BFF34F8F002962
:109F80000BDD114402F12003DFF8B0C08B42CCF8A6
:109F900068221A4603F12003F8D1BFF34F8FBFF3B5
:109FA0006F8F03684FF48062CEF80470CEF81420EF
:109FB0005B69CEF8204043B36868F669002837D063
:109FC0001D4B0340B3F1005F1AD000F01F0220F0D8
:109FD0001F011F32224422F01F02BFF34F8F002ABD
:109FE0000ADD0A4401F12003144D9A42C5F87012AB
:109FF000194603F12003F8D1BFF34F8FBFF36F8FE2
:10A000004FF48063706073613462F0BDEC69002CC2
:10A01000FBD06F691435D6F818E0002F9FD1084A9D
:10A020003346CEF81470CEF80420C1E73346B9E7C2
:10A03000044B70617360E7E70000FFFF00ED00E094
:10A040000000002004000020F8B507680646D7E9A4
:10A050000454002C50D0A0612B7D1F2B39D8202216
:10A06000286802FA03F343F018038360237D1F2B53
:10A070003AD92022203B02FA03F3226843F0180366
:10A08000D3606368002269680A601A601A6842F047
:10A0900010021A60BA69297A4CF0DEFAFA69217A5C
:10A0A00020684CF0D9FA2A7A2A492F6833688D5CE7
:10A0B0005A687B59206843F001037B51237AC95CBD
:10A0C000435843F001034350536843F00303536084
:10A0D000F8BD203B2022286802FA03F343F018035E
:10A0E000C360237D1F2BC4D8202202FA03F3226809
:10A0F00043F018039360C4E72A7D6B681F2AA861A8
:10A100001FD82021286801FA02F242F0180282606A
:10A110000021BA691960196841F010011960297AA3
:10A120004CF09AFA2A7A0B4933682868895C5A6895
:10A13000435843F001034350536843F00203536014
:10A14000F8BD203A2021286801FA02F242F01802F4
:10A15000C260DDE7242C060810B1036882889A618A
:10A16000704700BF18B1838802681B049361704771
:10A1700008B51D2010F0BCFA08B183794BB11E2040
:10A1800010F0B6FA08B1837903B108BD5523C38036
:10A1900008BD5523C380F2E7D3B2012B23D802EBCD
:10A1A00042024FF0000C70B54FEA820E0F4C63462E
:10A1B00022460EF1080504E00133182B11D012F8E5
:10A1C0001CCF6045F8D192F801C08C45F4D15659A6
:10A1D000002EF1D0C3EBC3030EEB83030433E0186E
:10A1E00070BD002070BD0020704700BFA8B50508F5
:10A1F00010B40C4C002304F6CC2C01E0152B0CD031
:10A2000003EB430201331CF802108142F6D12244D1
:10A210005DF8044B92F9CE0A70474FF0FF305DF8BD
:10A22000044B704730190120D3B2022B21D802EB26
:10A230004202002330B54FEA820C0F4D0F4C2A46E4
:10A240000CF10C0E04E00133172B10D052F82C4FF8
:10A25000A042F8D114798C42F5D152F80E40002C6E
:10A26000F1D02C2202FB03C30833E81830BD0020D4
:10A2700030BD0020704700BFE0B00508000001407D
:10A28000002838D0002330B51B4D90F804C005F6E7
:10A29000CC2401E0152B2CD003EB43020133A15C4D
:10A2A0006145F7D12A44046890F805E092F9CE3A66
:10A2B000DAB2022A1DD803EB4303104810494FEAD3
:10A2C000830C024600230CF10C0504E00133172B2C
:10A2D0000FD052F82C1F8C42F8D111797145F5D16D
:10A2E00051590029F2D02C2202FB03C30833184431
:10A2F00030BD002030BD704730190120E0B00508A6
:10A30000000001400248436E0BB1543018477047BB
:10A31000000001200348D0F888300BB1783018478E
:10A32000704700BF000001200348D0F8AC300BB1EB
:10A330009C301847704700BF000001200348D0F848
:10A34000D0300BB1C0301847704700BF000001206B
:10A350000348D0F8F4300BB1E4301847704700BF21
:10A36000000001200348D0F8183113B100F58470C3
:10A3700018477047000001200348D0F83C3113B162
:10A3800000F5967018477047000001200348D0F888
:10A39000603113B100F5A870184770470000012024
:10A3A0000348D0F8843113B100F5BA7018477047EC
:10A3B000000001200348D0F8A83113B100F5CC709B
:10A3C00018477047000001200348D0F8CC3113B182
:10A3D00000F5DE7018477047000001200348D0F8F0
:10A3E000F03113B100F5F0701847704700000120FC
:10A3F0000348D0F8143213B100F5017018477047C4
:10A40000000001200348D0F8383213B100F50A707B
:10A4100018477047000001200348D0F85C3213B1A0
:10A4200000F5137018477047000001200348D0F86A
:10A43000803213B100F51C701847704700000120EE
:10A440000138064B064A00EBC00003EB8000406D6C
:10A4500090420CBF952096204AF0C6B9000001201A
:10A460000060024001382DE9E84100EBC000124DC8
:10A470001E46124B05EB800590460F46686D9842CC
:10A480000CBF952096204AF0AFF995F969004FEA84
:10A4900098116F66EE664AF03DF895F96930002B29
:10A4A00007DB03F01F0001225B090549824041F8E8
:10A4B0002320BDE8E88100BF0000012000600240C9
:10A4C00000E100E0800AA0F58010522808D8054B72
:10A4D000184490F8F4330D2B02D8034AD056704735
:10A4E00000207047E0B00508142C060858B1838896
:10A4F0004FF00042B3FA83F332FA03F303D0024978
:10A500000A6813430B607047003C01400120FEF7CE
:10A510005BBC00BF0220FEF757BC00BF0420FEF763
:10A5200053BC00BF0820FEF74FBC00BF1020FEF751
:10A530004BBC00BF4FF47870FEF746BC4FF47C4034
:10A54000FEF742BC30B1036882881B691A4214BF0F
:10A5500001200020704700BF2DE9F04F884683B0EE
:10A5600004461746002800F0BC8002685E4B134486
:10A570009B0A5E4AC8F3411B134493F868074AF0EC
:10A5800033F9C8F38103B4F804E008F00302256846
:10A5900001939EFAAEF0B0FA80F002F1FF3A3EFA73
:10A5A00000F35ED00126032103E001303EFA00F300
:10A5B00057D006FA00F313EA0E03F6D0D5F8009050
:10A5C00093FAA3F4B4FA84F493FAA3FCBCFA8CFCD7
:10A5D0006400BAF1010F4FEA4C0C01FA04F402FADC
:10A5E0000CFC29EA040444EA0C042C6049D9D5F88F
:10A5F0000C9093FAA3F4B4FA84F493FAA3FCBCFA93
:10A600008CFC6400022A4FEA4C0C01FA04F40BFAA9
:10A610000CFC29EA040444EA0C04EC60C5D193FA6A
:10A62000A3FCBCFA8CFC1C0ABCF1070F41DC2C6AB1
:10A6300093FAA3FCBCFA8CFC93FAA3F34FF00F0936
:10A64000B3FA83F34FEA8C0C01309B0009FA0CFC3F
:10A6500007FA03F324EA0C0423432B623EFA00F3C7
:10A66000A7D1BAF1010F09D86B68C8F3001823EA23
:10A670000E030EFB08FE4EEA03036B6003B0BDE859
:10A68000F08FD5F8089093FAA3F4B4FA84F493FA0F
:10A69000A3FC6400BCFA8CFC01FA04F44FEA4C0CF5
:10A6A00029EA0409019C04FA0CFC49EA0C04AC6098
:10A6B0009DE7D5F824C094FAA4F9B9FA89F994FA77
:10A6C000A4F30F24B3FA83F34FEA89099B0004FA39
:10A6D00009F907FA03F32CEA090C4CEA03036B624D
:10A6E00063E74FF0FF3344E70000FEBFE0B005082A
:10A6F00000B131E770472DE9F84FC04F602306469F
:10A7000003FB0073D3F84C49002C00F06B81D3F8A5
:10A7100054A9BAF1000F04D09AF80630002B40F08B
:10A720006181602303FB0673D3F858591DB1AB79DF
:10A73000002B40F05781731CDBB2BAF1000F04D03C
:10A7400015228AF807308AF8062015B11622EB7117
:10A75000AA714FF06009207C4AF046F8294609FBAF
:10A7600006F950464DF076FB042207EB09085046E7
:10A7700098F85C39002B14BF3E211E21FFF7B8FF6B
:10A7800098F85C3928469E4D002B4FF004024D444A
:10A7900014BF3E211E21FFF7ABFF4C2200212846AB
:10A7A00050F0D0FAD8F84C399FED967AB0EE084ABE
:10A7B0005B68F7EE003AB8F85E994FF0000EC8F803
:10A7C000603940F21458904B9FED905A9A68904B24
:10A7D000C2F38222134493F87027D7F82434D3406D
:10A7E00007EE903AF8EE677AC7EE275A07EE909A8E
:10A7F0009FED887AF8EEE77AC7EE274ADFED867A92
:10A80000B0EE007AE5EE877AA5EE875A25EE844A07
:10A8100037EE856A74EEE72AB9F5C87F0EF1010CB0
:10A82000D5BF642332234FF49670782007EE90CA88
:10A83000D8BF4FF4167A0344C8BF4FF4827AB8EEFB
:10A84000E77AD8BF414607EE903AC8BF4FF4FA7195
:10A8500027EE257A01EB0A03F8EEE76A86EE873ADF
:10A8600073EE636AFCEEE67A17EE902A07EE90AA82
:10A87000B8EEE73A07EE903AF8EEE77A23EE243A9C
:10A88000C3EE276A36EEC53A72EEE66AC3EE077A81
:10A8900077EEE37AFCEEE77A17EE901AC6EE877A47
:10A8A00077EEE37AFCEEE77A17EE903A03F1020ACC
:10A8B0000AEB010BF0EE466A07EE90BAF8EE677A03
:10A8C000E7EE276AF4EEE64AF1EE10FA00F38E8026
:10A8D0005FFA82FABAF10F0F00F28A80323807EE7F
:10A8E000900AF8EEE77A77EEC47AC7EE876AFCEE54
:10A8F000E67A17EE900A5FFA80FABAF10F0F77D86E
:10A900001FFA81FABAF1FF0F72D81FFA83FABAF16F
:10A91000FF0F6DD812054AEA0E7302F07F62000441
:10A92000134300F47F003D4A034302EA01210B4335
:10A93000602000FB067600272846C6F8643901230C
:10A94000C6F86879C6F86C39C6F87079C6F87479B3
:10A95000C6F87C79C6F880794CF03AFE96F8A139B1
:10A96000202BD9B21AD196F8A039012B16D0242366
:10A9700086F8A139D6F860391A6822F001021A6007
:10A980001A6822F480521A601A681A601A6842F033
:10A9900001021A6086F8A11986F8A079002194F9BD
:10A9A000120049F0B7FD94F91230A27C002B07DBAE
:10A9B00002F01F0101225B098A40194941F8232056
:10A9C000002194F9110049F0A5FD94F91130627C41
:10A9D000002B07DB02F01F0101225B098A401049AE
:10A9E00041F82320BDE8F88FE64615E701315FE71F
:10A9F000BCF10F0FF8D100239AE700BF30190120F6
:10AA000090220120286B6E4E003802400000164351
:10AA1000E0B00508002474490000704200FFFF0008
:10AA200000E100E02DE9F047814DC0EB001605EB99
:10AA3000C606D6F80C3B002B00F0B8800446070190
:10AA400096F87C0B49F0D0FE96F87C3B012203F08F
:10AA50001F015B09013B8A40032B0AD8DFE813F092
:10AA6000DC000400E200D60072494B6A23EA0202CD
:10AA70004A623B1B04F1010905EBC3035FFA89F944
:10AA800093F8100B0FF034FE064618B1122380F82D
:10AA9000079083713B1B05EBC30393F8110B0FF079
:10AAA00027FE824618B1132380F8079083713B1B61
:10AAB00005EBC30393F8120B0FF01AFE804618B192
:10AAC000142380F8079083713C1B50462E2105EB20
:10AAD000C40595F8142BFFF70BFE95F8152B0E21E6
:10AAE0004046FFF705FE95F8132B2E213046FFF761
:10AAF000FFFDD5F80C3B50491A688B4222F040020A
:10AB00001A6055D04D4A934269D002F58062934253
:10AB100058D1484A116A41F400411162116A21F486
:10AB2000004111625A6842F480525A601A68520613
:10AB300034D443491E68D1F8A842D1F8B402D1E90F
:10AB4000A525B0F5005F42EA0502D1F8A05242EA1D
:10AB50000502D1F8A45242EA0502D1F8AC5242EA09
:10AB6000040242EA0502D1F8B05242EA0502354D2C
:10AB700042EA000205EA060542EA05021A60D1F837
:10AB80009C225D6842EA14422F4C04EA050442EA22
:10AB900004025A6002D1B1F8B8221A61DA6922F4CB
:10ABA0000062DA611A6842F040021A60BDE8F0877C
:10ABB000204A516A41F480515162516A21F4805116
:10ABC0005162AFE7214A934213D11A4A516A41F4C4
:10ABD00000515162516A21F400515162A2E7154AB5
:10ABE000116A41F480411162116A21F480411162BD
:10ABF00098E7174A934295D10E4A516A41F4801161
:10AC00005162516A21F4801151628BE709490B6945
:10AC100023EA02020A612CE706494B6923EA020291
:10AC20004A6126E703490B6A23EA02020A6220E727
:10AC30003019012000380240003001400038004047
:10AC4000000001204000FFFFFBF0FFFF0034014047
:10AC50000050014008B100227EE47047F8B5CB787F
:10AC600013B900252846F8BD00F110070C4606462A
:10AC7000897838460EF0A8FE05460028F1D0E07825
:10AC80000FF036FDB06123780133DBB210B1C37130
:10AC9000222383710D21FFF7DDFFB069FFF75CFA16
:10ACA0000D4AD2F81C34632BFBD90C480EF078FE09
:10ACB00003463846B38241F095FB034630B9E0784D
:10ACC0001D460FF015FD0FF071FDCBE7306986F8DA
:10ACD000D8304DF089F9C5E73019012040420F0006
:10ACE00070B50E4CD4F81C6F002E15DD04F587648A
:10ACF000002503E0B54204F120040DD0237F013587
:10AD0000002BF7D0E06800220028F3D0217D20340A
:10AD1000FFF722FCB542F1D1012070BD8001002077
:10AD2000AB4B2DE9F04F91B093F8FE8CA94B002569
:10AD3000A94F0093A94BA3F6580ADFF8B892DFF8A1
:10AD4000B8B24E46B30AA3F58013522B55D85344DC
:10AD500093F8F4330D2B50D8B8F1010FFC5640F0A6
:10AD60001E81012C3FD14FF000094946204610F0CA
:10AD7000CFFB10F055FC90F800C0BCF1000F18BFDD
:10AD8000BCF1540F14BF4FF0010C4FF0000C40F019
:10AD9000028109F104091FFA89F9B9F1100FE4D110
:10ADA000002D00F0BA808B4A00210DE0534493F847
:10ADB000F4330D2B0FD8FB56A3420FD0013102F50F
:10ADC0008672A94280F2A580906803689B0AA3F569
:10ADD0008013522BEAD90023A342EFD143799BF889
:10ADE00005009842EAD17D4B5B4513D05BF81C6FA0
:10ADF000B30AA3F58013522BA9D9B8F1010FF2D0F1
:10AE000001230024B8F1020FADD1002BABD0734B5E
:10AE10005B45EBD1009B013503F58673042D009350
:10AE20008BD1DFF8D8814FF0000B08F59E77A8F59D
:10AE3000876ADAF81C3F5B4568DDD8F80C60002EA5
:10AE400064D098F81030B088D6F80090DAF8045042
:10AE500063490193B0FA80F34944002D0293C3F192
:10AE60001F034FEA9121009340F3CD80594B0024FA
:10AE700005E0013403F58673AC4200F0C1801A6826
:10AE80008A42F6D14FF48673524A03FB0424009A97
:10AE90000BF1010B019B5100C8F8042088F8103019
:10AEA0000323C8F80C6003FA01F5C8F81840B37121
:10AEB000012386F807B01646A26C03FA01F12A4373
:10AEC000A264226D0A4322659AF80020002A6BD002
:10AED00003FA06F11A46636D0B4389B26365C9F83C
:10AEE0001800D4F8AC00FDF7F3F8204608F120086C
:10AEF000FDF7C2F80123BBF1080F07F1180708F8A6
:10AF0000043C08F8033C07F8073C92D111B0BDE8B7
:10AF1000F08FBCF1000F7FF466AF5846FDF770F874
:10AF20009BF80540C3B2022B00F24B83431C2D4A11
:10AF30005BB203EB430398002B4B03F5727104E003
:10AF4000994200F03E8353F82C2FB242F8D11A797F
:10AF5000A242F5D11A58002AF2D094460023234A7F
:10AF600051680133614513D0102B02F12402F7D14F
:10AF70004FF0FF3303EBC3031D4A02EB830393F847
:10AF80007030002B7FF42FAF009BC3F808B041E76F
:10AF9000DBB2013BEEE7002D7FF405AF23E7B4F110
:10AFA000080318BF01232DE702990004C1F12F0502
:10AFB000009903FA01F1AB40656D89B22B436365DB
:10AFC000C9F81800D4F8AC00FDF782F88DE700BF8F
:10AFD0003019012088010020142C060838B9050812
:10AFE0000000FEBF00000140E0B005085400012051
:10AFF000000001200004014058B80508B8050020F1
:10B00000032C00F398824FF4867303FB05A31869A1
:10B01000002800F0C08299600131CAB283F8112182
:10B020000492542283F810216B1C0268CAF8043081
:10B0300044790392FCF7E4FFA04B864693F8153D54
:10B040000593C3B2022B00F2BC8200F1010C9C49B3
:10B050009C4800234FFA8CFC039A0CEB4C0C4FEAF3
:10B060008C0C05E00133172B00F0AB8251F82C0F4C
:10B070009042F7D10879A042F4D151F80C00002891
:10B08000F0D02C210EEB4E0E002401FB03F303EB5A
:10B090008E0E8B4B734419694FF4867303FB05A323
:10B0A000C3E90701884B9C46DCF80410884217D09E
:10B0B00001340CF1240C102CF6D1844B93F84C2065
:10B0C000002A00F06182824B82488349834AC3F898
:10B0D0004804C3F84014C3F8502411B0BDE8F08F01
:10B0E000611C7A48C9B2013901EBC10100EB810151
:10B0F00091F8700006900028E5D104984FF08C0C70
:10B1000081F871004FF4867000FB05F4204654244A
:10B1100081F870400446811071480394544400FB48
:10B1200001F1C4F800C101FB0CF001EB4101C4F8CE
:10B130000C9001EB011C6B4901EB4000A1F54C7137
:10B1400001EB8C01C4F8FC00C4F8B4103321C4F83E
:10B15000B8106549039C0C195849D1F824940599F5
:10B16000062900F00D82072960486149DFF888E16F
:10B170000CBF84468C465F4908BF71461046059354
:10B18000039BB9FBF1F1B9FBFCFC4A1E4FF4867935
:10B190000CF1FF3192B209FB05A9A9F8BC1003F12B
:10B1A0005801A9F87420504B226600221944A4F8D3
:10B1B00058206266E2654BF0CBF9D9F81030186878
:10B1C0000493026842F0800202605A79059B0C2ABF
:10B1D00008D8DFE802F06B070707640707075C077A
:10B1E000070754004FF4867202FB05A251694FF025
:10B1F000600C02684FF000094FF0020ECDF820C03D
:10B200004FF4807C22F00102CDF82890CDF838C0B0
:10B210004FF0010CCDF83490CDF824C04FF00A0C5B
:10B22000CDF83C900593CDE90BCE026008AA4BF017
:10B230004DF84FF48672049B02FB05A2196852690F
:10B24000059B012A5AD0042A58D0102A00F0A88160
:10B25000402A53D0B2F5807F00F0A581B2F5806F0F
:10B2600000F0A181B2F5805F00F0A381B2F5803FCC
:10B270004FF03C090CBF08224FF400623FE04FF44E
:10B2800086724FF4805102FB05A25161AFE74FF483
:10B2900086724FF4807102FB05A25161A7E74FF45B
:10B2A0008672102102FB05A25161A0E74FF486725D
:10B2B000012102FB05A2516199E700BF301901206D
:10B2C000E0B005080000014054000120000001200A
:10B2D00078120020917801088D780108997801088A
:10B2E0006B4CA407081A002088010020105522008A
:10B2F00044950800D0DD060040771B00082201F1CC
:10B30000180050F809C042EA0C0240F80920049ADB
:10B310001079002840F01B814FF48671002201FB58
:10B3200005A1D1F810C0C869DCF800C0DCF8001035
:10B3300041F00101CCF8001059680132884200F058
:10B340000281102A03F12403F6D14FF0FF339E4A05
:10B3500003EBC30302EB8303586D9C4B98420CBF75
:10B360009520962049F040FA4FF4867303FB05A31D
:10B370001A6953790C2B00F2E380954901EB4303E2
:10B38000B3F874C84FF486731068924903FB05A3A1
:10B39000A3F818C0002306E0904200F008810133B2
:10B3A000042B00F00B8151F83320002AF4D1DAF895
:10B3B000202F0132CAF8202F0AEBC302DB00C2F8AB
:10B3C000240F1944069823469022B1F804E0DFF8D0
:10B3D00018924CEA0E0CA1F804C07F49FFF742F81E
:10B3E0004FF486734FF4403C402103FB05A5002336
:10B3F000E869026842F010020260026842F014023A
:10B400000260C4F8A830C4E91F33C4E92833042318
:10B410002A6AC4F898C04FF4804CC4F89C304FF4AA
:10B420008063A167C4F88430C4F89420D5F8B820AC
:10B43000C4F89020C2B220F0FF00103AA9FB0231FC
:10B44000EA68039B1832090922674FF48052C4F856
:10B45000882003F17002614B1A44D5F8B430C4F867
:10B460008CC063674BF0F8F8E869039B4FF4003138
:10B47000D0F800E04FF4006C03F1B802574BC4F869
:10B4800020E0D0F814E01A440023C4F824E0D0F8F7
:10B4900004E0C4F828E0D0F808E0C4F82CE0D0F8C4
:10B4A0000CE0C4F8C830C4F830E0C4F8F030C4E9A7
:10B4B0003033C4E93A332B6A03930423C4F8E430ED
:10B4C0004FF48063C4F8CC30039BC4E93731D5F81E
:10B4D0000031C4F8D830C3B220F0FF00103BA9FB04
:10B4E0000331EB68C4F8D0C010330909C4F8B83090
:10B4F000D5F8FC3003934FF48043C4F8D430039B59
:10B50000C4F8BC304BF0A8F8EB69B0881A68D6F8DC
:10B51000009062635A69A2635A68E2639A6822647F
:10B52000DA6862641A6842F010021A601A6842F01F
:10B5300014021A60ABE40323294A82F8143DC2E5E1
:10B540004FF0000C1EE7D3B20693013BFFE60793D2
:10B5500005910FF0CDF805998146079B58B10593E9
:10B560000221049BDA79FEF7F7FF049B5422A9F825
:10B5700006201968059B4A6C42F400424A64CBE6F7
:10B58000DFF868C01749F9E50499542283F84D1093
:10B5900083F84C2097E50223114A82F8143D92E586
:10B5A0004FF40062ABE608224FF00409A7E6DB0087
:10B5B00007E74FF400624FF00409A0E600239B88E0
:10B5C000FFDE00235B68FFDE000001200060024018
:10B5D000E0B00508A41000201D81000888010020AB
:10B5E00030190120A0BB0D00ABAAAAAA882A11001D
:10B5F0002DE9F84F704E0022704B0546D6F8184DD5
:10B600005968013224338C4200F0B080102AF7D1FF
:10B6100000246B4B9D4205D048339D4202D0002050
:10B62000BDE8F88F04F1FF39664F09EBC9034FEA13
:10B63000C90807EB830393F87020002AEFD14FF07D
:10B64000170BA3F870B0002CE9D0DFF890A101200F
:10B65000DAF8243043F40063CAF824300FF036FDE2
:10B66000DAF82430012023F40063CAF824300FF004
:10B670002DFDA6F86ABEDAF8443043F40063CAF838
:10B680004430DAF8303043F48003CAF83030DAF866
:10B69000303043F00C03CAF8303096F81E3D002BD2
:10B6A00066D10C220E214848A6F88ABEA6F8BABE7A
:10B6B000FEF752FF0C220E214448FEF74DFF0C22EC
:10B6C0000E214348FEF748FF424BDA68C6F8185D82
:10B6D000C2F30222C2F10701131D042928BF04216D
:10B6E000062B4FF0FF338CBF033A00228B403A49C0
:10B6F000DB4303F001039340384A1B01DBB281F8BE
:10B7000031334FF400334B60136B43F48003136306
:10B7100000232B60324BAB6003F59B3303F5EC73D6
:10B720009D4244D02F4B4FF47412DA60C8442E4B24
:10B7300007EB8807786D98420CBF952096202B4B1D
:10B740002B6007236B6149F04FF8D6F8182D1C4B7E
:10B7500020469A424FF000034FF001020CBF2449EB
:10B760002449FEF77FFE0120BDE8F88FD4B250E7F0
:10B770000C220E211448A6F872BEA6F87ABEA6F8CE
:10B7800082BEA6F88ABEA6F8BABEFEF7E5FE0C2277
:10B790000E211948FEF7E0FE0C220E211748FEF795
:10B7A000DBFE0C220E211648FEF7D6FE82E74FF094
:10B7B000746243F8502CB9E730190120540001207D
:10B7C000586402400000012094270120B427012082
:10B7D000E427012000ED00E000E100E00038024035
:10B7E000802C014000640240006002406054A308C5
:10B7F00035C30008FDC300089C270120A4270120B1
:10B80000AC270120F8B590F8B2311C09013C052C99
:10B810000FD81B4E054603F00F0306EB4402B2F8A7
:10B82000900840FA03F2D20703D595F8BD71012FB5
:10B8300001D00120F8BD07FA03F33444013B18405E
:10B840004DF080FC94F89C2813180E4A02EBC301BB
:10B8500052F833208B8810691840EBD0002395F8FC
:10B86000B3210846022185F8BD31FEF775FED5F8F3
:10B8700020213846136843F008031360F8BD00BF69
:10B88000E0B005085426012070B503798AB0344C25
:10B89000002B14BF0122002284F8742303D184F802
:10B8A00048330AB070BD04F55F76054690F9001084
:10B8B00030460EF089F8AD78002D44D10123294996
:10B8C000294A84F88833D4F82434C4F81024B1EB1E
:10B8D000930FC4F884534FEA93024FF0020306D249
:10B8E00052085B008A429BB201D9FF2BF8D94FF472
:10B8F0007A70A4F880330FF0E9FBD4F8843313B1E5
:10B900001A689B889361194DEC460FCDACE80F0087
:10B910000FCDACE80F0095E803008CE80300694602
:10B9200030460EF0CDF9D4F87C23136A002BFCD1FD
:10B93000D4F81C14012284F83C33C4F8381384F87A
:10B9400048230AB070BD28460EF0D2FE05460028F6
:10B95000B4D01E2300220D21C380FEF7FDFDADE70C
:10B9600030190120801A0600541C012084B90508F2
:10B970002DE9F04F00228DB02F2180460FF0A8FE58
:10B98000C8B1974E05464379D0F80090A6F83035F7
:10B99000FEF776FC78B144686CB1924F00233A46CA
:10B9A0005168013324328C4210D0102BF8D18E4BC9
:10B9B00093F84C201AB100200DB0BDE8F08F2F2174
:10B9C000104683F84D2083F84C10F5E7DBB2864A29
:10B9D000013B03EBC30302EB830393F870A0BAF1BE
:10B9E000000FE8D18268C6F8F09401922F22A3F8E4
:10B9F0007020D6F824347D4A934280F0D38052469A
:10BA00001B0A7B49C6F8F4240020A1FB0331794BC3
:10BA1000DFF808B20A09C6F800050909C6F8F804F3
:10BA2000A3FB0232C6F8FC1452082BF8D22C5200A9
:10BA30002BF8D42C96F82D2502F0FF01002A00F0F7
:10BA4000BD80022248466C4986F82D2544F000F856
:10BA50000122404686F82D250EF04AFE4BF8D00C08
:10BA600028B12F21C1804E21EA79FEF775FD634A86
:10BA70000021019B4FF4806C4BF8C01C4BF8B01CAC
:10BA80004BF8A81C4BE933434BE92811106B40F4E9
:10BA900000101063106B00F4001003900398106BFB
:10BAA00040F480001063126B02F480020492049A46
:10BAB00040224BF8C42C4FF480524BE92FC24FF474
:10BAC00080424BF8B42C4FF400324BF8AC2C0322DC
:10BAD0004BF8A42C96F830250C2A72D8484901EB73
:10BAE0004202B2F8CC88C14608F10808454A4649E6
:10BAF00006EB88034BF8941CC3F8F0243B46002265
:10BB00005968013224338C4261D0102AF8D14FF0A9
:10BB1000FF3202EBC202344B03EB820B3B4BDBF8F0
:10BB2000540098420CBF9520962048F05DFE0023FB
:10BB30007A6801332437944246D0102BF8D106EBB3
:10BB4000880850464B4660223149FEF78BFCD8F8F6
:10BB5000F00443F02DF900287FF42DAF60210A9006
:10BB6000AB79059159000B90DB00069001F00201C2
:10BB7000099003F00803B6F830252348CDE90713F0
:10BB800005A948F085FA00287FF415AFAB79B6F81F
:10BB900030159B071C481DD544F05AF8B0FA80F0C8
:10BBA000400909E71B4A1C491A44A1FB0212920DE5
:10BBB000013A92B2511CB3FBF1F321E786F82C1540
:10BBC0003FE7894688468FE75FFA83FAB7E7D2B244
:10BBD000013A9EE743F00CFFB0FA80F04009EBE633
:10BBE000301901205400012000000120006CDC020B
:10BBF000598B4F01ABAAAAAA241E0120003802408B
:10BC0000E0B005085C290120201E012000600240F0
:10BC1000CD8E000800366E01819F5E16282A012015
:10BC2000014B43F820107047502800401D4B1E4820
:10BC3000196C1E4A41F0805130B4196482B0196CFD
:10BC4000FF2401F0805101910199016841F4807154
:10BC50000160CA20196C41F480611964196C01F407
:10BC6000806100915321009D5462506251625B6F6C
:10BC7000DB000DD40E4B00210E4A43F8041B934207
:10BC8000FBD10D4B0D4AC3F8502802B030BC7047B1
:10BC9000094A0A4BD2F850289A42EBD102B030BC84
:10BCA000704700BF0038024000700040002800408C
:10BCB000542800406C280040002000403166654256
:10BCC0002DE9F0470646086888B00C464FEA902CEC
:10BCD000BDF84080ACF5801C9DF84490BCF1520F3B
:10BCE00064D8374FBC449CF8F4530D2D5ED81946E8
:10BCF000FDF72AF9334A2368617902EB851A94F833
:10BD000006E0B9F1000F54D1F4469B0AA3F5801365
:10BD1000522B23D83B4493F8F4030D281ED84FEA46
:10BD20004C034FF480774FEACC0CCDF8088003F039
:10BD3000020302EB80100A4601A903930CF00803EA
:10BD40000493602301934FF40073CDE9067300233D
:10BD5000059348F09DF9617994F806E01EF0020F12
:10BD6000504629D043F074FF174BA801022203EB81
:10BD70008515D5F8341585F87125144A8D682A4043
:10BD8000062A06D0B2F5803F03D00A6842F00102CD
:10BD90000A600344012283F871252168637901F167
:10BDA000340271600021D0183060D15008B0BDE875
:10BDB000F0878EF0010CA8E743F01AFED4E700BF2D
:10BDC000E0B00508641E01203019012007000100C1
:10BDD000800AA0F58010522809D8064B184490F824
:10BDE000F4330D2B03D8044800EB83107047002078
:10BDF000704700BFE0B00508641E0120F0B504469E
:10BE0000D0F89400434B83B0A16804F1640204F1BC
:10BE100018070E68C1B220F0FF0001921039A3FB91
:10BE2000013109094AF062FC616D0023019A012980
:10BE300084F8583018D0042916D0102955D040293C
:10BE400012D0B1F5807F53D0B1F5806F50D0B1F5ED
:10BE5000805F55D0B1F5803F4FF03C030CBF6FF0D1
:10BE6000080C6FF4006C01E06FF0080C06F1180587
:10BE70003046E95801EA0C01E950616D4AF026FAB2
:10BE8000636D012B16D0042B14D0102B0FD0402B38
:10BE900010D0B3F5807F2FD0B3F5806F2CD0B3F5E1
:10BEA000805F31D0B3F5803F06F1540502D04FF4E6
:10BEB000006100E008212B683A46D4F894000B4357
:10BEC00040212B602162C1B2124B20F0FF001039DB
:10BED000A3FB013109094AF0BFFBD4F89420136891
:10BEE00043F01003136003B0F0BD6FF4006CBDE7C6
:10BEF0006FF0080C0423B9E706F11C050821DAE706
:10BF00006FF4006C0423B1E706F11C054FF40061E7
:10BF1000D1E700BFABAAAAAA2DE9F04FDFF85CB2C7
:10BF20009BF800402DED028B87B034B901242046E8
:10BF300007B0BDEC028BBDE8F08F8B4BDFF840A261
:10BF4000D3F81C3408EE103A0EF008FE9AF8243CA0
:10BF50000390002B00F001810BF234670BF63433B1
:10BF60000BF63C4400263D4601930597DAF81C3455
:10BF7000039AD31A03D4EA6D9A4200F3D08006EBF9
:10BF800086030BEB431393F88C3603F0FF02029207
:10BF9000002B00F08D80D5F89410AB6873481A68B8
:10BFA000CBB221F0FF01103BA0FB030370481B093B
:10BFB000C35C19444B68A9891FFA83FCD368CCF190
:10BFC000160C23EA0103BCF1070FD36070D9DBF82C
:10BFD0003C3B00220121013396468946CBF83C3B8D
:10BFE000D5F89C301F46049357F8048B40461CE05C
:10BFF000D7F80080BEF1140FA8EB000340461CDC0C
:10C0000013F1080848BF03F117084FEA28130EEB95
:10C01000281E03F1FF38013102FA03F3043709FA4D
:10C0200008F28C4542EA030207D38C45E0D8CEF1F2
:10C03000150338684FF0150EEBE7BEF1150F65D10B
:10C040004C49C2F38423C2F3441001EB830301EB98
:10C050008000D3F8E838D0F8E8081B0243EA001360
:10C0600002F01F00C2F3C43201EB800001EB820238
:10C07000D0F8E818D2F8E8280B4343EA023383EA01
:10C08000132282EA121202F00F020F2A3ED1C3F3EA
:10C090000F134FF6FF72934238D0B3F5606F45D05F
:10C0A000019A9381029918EE102A20460DF01EFC89
:10C0B000019B284601365C341433A0350193FFF709
:10C0C0009DFE9AF8243CB3423FF750AF0122059FF2
:10C0D0008BF8382C0022CAF81C24002B3FF426AF22
:10C0E00003EB830307EB43133A7CA03757F84C0C60
:10C0F00012F0020F57F8982C11680A6A14BF42EA2E
:10C1000080020243BB420A62EED10FE7DBF8383B04
:10C110000133CBF8383BCEB100230293C2E70024B1
:10C12000204607B0BDEC028BBDE8F08F0E4991F8B8
:10C13000A02402EB420201EBC202324492F84D24E9
:10C140000D2AADD18023019A9377ABE70499582249
:10C1500009484EF083FD0296A4E70122CAF81C3478
:10C160008BF8382CE3E600BF30190120ABAAAAAA4D
:10C17000242C0608E0B00508600D00208001002096
:10C18000781200204A1C4FF4003310B408BF4FF05F
:10C19000800C4C4C18BF4FF0450C00E0FBB1626BBB
:10C1A000013B12EA0C0FF9D0002923DD626B520724
:10C1B0001CD403291ED0434A536B13F0010320D132
:10C1C000022908D01369DBB283421ED101295369C9
:10C1D0002BD006291BD000205DF8044B70470029A6
:10C1E00004DD636B5C0701D40329E4D103205DF80F
:10C1F000044B7047002B5DF8044B14BF0020032054
:10C20000704701205DF8044B70471020EFE713F4EE
:10C21000604F02D12C4A42F86C3C990431D45A0444
:10C22000F3D41B04D7D50F20E1E728481840002895
:10C23000DDD0002B29DB5C0025D4980029D4D9005F
:10C2400025D41A0129D45C0125D4D8012FD4190290
:10C25000E9D45A02D9D49C0227D4D8022FD4190386
:10C260000FD45A0329D49C0325D4D80321D419040C
:10C2700019D45A0415D49C0411D41807ABD51A202C
:10C28000B5E71320B3E70920B1E71C20AFE70B2087
:10C29000ADE70A20ABE70D20A9E70C20A7E719209E
:10C2A000A5E71820A3E71720A1E711209FE70E209C
:10C2B0009DE716209BE7152099E7142097E71220A9
:10C2C00095E700BF002C0140282A012008E0FFFD6F
:10C2D000F8B5164DD5F8BC32A3B1D5F8C412044652
:10C2E000012915D0124B40F2FF500021DA6A22F0EA
:10C2F0000802DA629863C5F8BC12236823F00103D0
:10C300002360F8BD0A4AD36B43F48073D363F8BD4E
:10C31000074E40F2FF5700230C20B763B36040F292
:10C320004C43F360FFF72EFFB763DBE730190120C2
:10C33000002C01402F4B1A68910102D59A6D5207CB
:10C340004BD42C4B1A68500202D5DA6E11063CD43D
:10C35000284B1A68D20102D59A6D90072DD4254B2F
:10C360001A68510102D59A6D120717D4214B1A6829
:10C37000120112D59A6DD0060FD59A6D510334D49F
:10C380009A6DD20503D49A6D22F010029A65194B6A
:10C390004FF0006218489A609AE770479A6D500310
:10C3A00007D49A6DD10503D49A6D22F008029A65DC
:10C3B000104B4FF080629A60D8E79A6D4FF0807111
:10C3C00022F002029A659960C9E7DA6E4FF48001A3
:10C3D00022F08002DA669960BAE79A6D4FF0007138
:10C3E00022F004029A659960ABE74FF000629A6010
:10C3F000704700BF0064024058640240384B5A68DE
:10C40000110303D5D3F8A02052075BD4344B5A68EC
:10C41000D00303D5D3F8B420110649D4304B5A6861
:10C42000520303D5D3F8A020900737D42C4B5A6879
:10C43000D10203D5D3F8A02012071CD4284B5A6888
:10C44000920217D5D3F8A020D00613D5D3F8A02098
:10C45000510341D4D3F8A020D20505D4D3F8A020AD
:10C4600022F01002C3F8A0201D4B4FF400121D480B
:10C47000DA602DE77047D3F8A02050030AD4D3F830
:10C48000A020D10505D4D3F8A02022F00802C3F8DB
:10C49000A020134B4FF48012DA60CFE7D3F8A0202E
:10C4A0004FF4802122F00202C3F8A020D960BDE73A
:10C4B000D3F8B4204FF4803122F08002C3F8B420C6
:10C4C000D960ABE7D3F8A0204FF4002122F004029A
:10C4D000C3F8A020D96099E74FF40012DA607047E2
:10C4E00000640240A0640240554B93F82033022BB5
:10C4F00000F295802DE9F041524D82B06B6913F046
:10C50000007303D00E2002B0BDE8F081CDE9003306
:10C5100040F2FF564FF48A6308270446AE630121B8
:10C52000AF601020EB60FFF72DFEAE630028EAD16C
:10C53000DFF81C8140F27743AE63012158F86C2C80
:10C540003720AA60EB60FFF71DFEAE630028DAD14A
:10C550003D4A40F2734301216A62AF62EA6A42F0E7
:10C560003302EA62AE63A8603320EB60FFF70AFE95
:10C57000AE630028C7D1694640F22A4201E09F021B
:10C5800051D46B6B13426B6BF9D01E0750D46B6B9D
:10C5900098074FD46B6B99064ED46B6B9B024DD4AE
:10C5A000B4F5006F009B08BF4FF480221BBA18BF80
:10C5B0004FF480321A4234D0224D40F2FF5658F8E0
:10C5C0006C2C40F27743AE630121AA603720EB6008
:10C5D000FFF7D8FDAE63002895D1B4F5006F40F2A7
:10C5E0004643AE634FF0010108BF0220A860062059
:10C5F000EB60FFF7C7FDAE63002884D16B6803F4DE
:10C6000000639C423FF47FAF104A6B6813402343A2
:10C610006B606B6803F40063A342F6D173E72820D4
:10C62000704726206FE7D5F8803041F8043BA8E733
:10C63000042068E7022066E7062064E7222062E71C
:10C6400030190120002C014000E1F5050081FFFFB9
:10C65000282A01200E4A01210D2052F86C2C38B5F1
:10C660000C4C40F2FF5540F24D43A563A260E360DD
:10C67000FFF788FDA56340B96069C0F34320A0F1CE
:10C680000400B0FA80F0400938BD002038BD00BF7A
:10C69000282A0120002C0140A34A0220A34B516C00
:10C6A00041F400612DE9F043516483B0526C0325DD
:10C6B0009F4C02F400620192019A6268134043F0B9
:10C6C00076036360636823F48073636025600EF013
:10C6D000FDFC636840F2FF50002143F480734FF487
:10C6E000806263604FF40033A063A160E26001E008
:10C6F000002B60D0626B013B1706F9D5002B5AD096
:10C7000040F2FF554FF4D5724FF489630721A563BA
:10C710000820A563A260E360FFF734FDA56300284D
:10C7200042D04FF00009824F40F2774340F2FF5869
:10C73000002201213720C7F83880BA60FB60FFF77C
:10C7400021FDC7F83880034650BB7A4D04460646A3
:10C7500049EA050510E0C7F83880BD60FA60FFF7C8
:10C7600011FD4FF6FE720346C7F83880C0B97B69E9
:10C77000002B29DB944227D840F27743C7F8388052
:10C780000121BE603720FB60FFF7FCFC034640F24E
:10C790006942032129200134C7F83880002BDAD000
:10C7A000184603B0BDE8F083634B01224FF0804987
:10C7B00083F82023B7E703235D4A40F2FF51184670
:10C7C000916303B0BDE8F0834FF6FF72944200F02E
:10C7D000A4805E002DD4564B1B68980731D0564C70
:10C7E00094F82003042831D1FBF7C4FD0346002848
:10C7F000D6D1524A40F247434D4D40F2FF5652F8CF
:10C800006C2C0121AE630720AA60EB60FFF7BAFC35
:10C81000AE63464A6B681A4003466A600028BFD17F
:10C8200094F81E3D0BB14FF4006003B0BDE8F04337
:10C830005AE6414C02203E4B84F820031B689D07BA
:10C8400004D12623184603B0BDE8F083384940F2EE
:10C85000FF5200238A6340F2C2428B604FF40033E0
:10C86000CA6000E023B14A6B013B12F0450FF9D0DA
:10C870002F4A536B5B0752D4536BD90748D440F20D
:10C88000FF53012893635369C4F8A4329369C4F831
:10C89000A832D369C4F8AC32136AC4F8B03201D9F3
:10C8A000062832D1224D40F2434340F2FF56002287
:10C8B00006210320AE63AA60EB60FFF763FCAE6362
:10C8C000034600287FF46CAF1C4A40F2C943184D60
:10C8D00040F2FF5652F86C2C0221AE630920AA6088
:10C8E000EB60FFF74FFCAE63034600287FF458AFC0
:10C8F0006B69C4F89432AB69C4F89832EB69C4F838
:10C900009C322B6AC4F8A0326EE70228CAD0DBE75B
:10C9100040F2FF510123916342E71B2340E740F2BD
:10C92000FF51032391633BE7003802400081FFFF82
:10C93000002C01400000108030190120282A01201D
:10C9400038B52E4C14F8670C0DF0D2FE28B11F211B
:10C950000022C1802021FDF7FFFD294DD5F8F438D4
:10C960003BB195F800191A68C9079B8848BF1B049A
:10C97000936195F91F2DD3B2012B17D8214B4FF09E
:10C980000C0C082003F521711CFB020C99420DD000
:10C9900013F81C2F032AF9D15A78002AF6D153F83C
:10C9A0000C000028F2D0FEF723FE08B9012038BDA4
:10C9B000D5F8783343B11A689B881269134095F80B
:10C9C000752372B9002BF1D014F8633C63B10E4BA0
:10C9D00093F8BC020028E9D1D5F81C34C5F82034FE
:10C9E00038BD002BE2D1EFE7012304F8633CFFF7E9
:10C9F00053FE054B83F8BC02ECE700BF282A012058
:10CA000030190120A8B505080000012008B51A4B0F
:10CA100013F8632C82B1194B93F8BC0258B1184A31
:10CA200092F83C330133DBB2072B82F83C330CD94C
:10CA3000002382F8483308BD012203F8632CFFF776
:10CA40002BFE0E4B83F8BC02E8E7D2F8783343B1F3
:10CA5000186892F875139B880069034049B1002B50
:10CA6000E6D1D2F81C140123C2F8381382F84833F7
:10CA700008BD002BDCD0F4E7282A012000000120AB
:10CA80003019012010B503793F4C002B14BF01234E
:10CA9000002384F8743303D1002384F8483310BD95
:10CAA00094F91F2DD3B2012BF6D8384B4FF00C0C54
:10CAB000082003F521711CFB020C9942ECD013F8FD
:10CAC0001C2F032AF9D15A78002AF6D153F80C000A
:10CAD0000028F2D02E4913464A682431904208D0EB
:10CAE0000133102BF8D1002384F8153484F848332F
:10CAF00010BD94F81D2D0133003A84F8153418BF89
:10CB0000012284F81624FEF773FDD4F8783393B12C
:10CB1000196894F875239B8809690B40E2B9003BBA
:10CB200018BF01233BB994F83C2384F84833531CC5
:10CB300084F83C3310BD174B13F8632C82B1164BAD
:10CB400093F8BC02A8B194F83C330022013384F876
:10CB5000482384F83C3310BDB3FA83F35B09E1E763
:10CB6000012203F8632CFFF797FD0B4B83F8BC02FF
:10CB7000E8E7D4F81C24012384F83C03C4F83823E4
:10CB800084F8483310BD00BF30190120A8B505084E
:10CB900054000120282A012000000120184A012108
:10CBA0000D2052F86C2C38B5164C40F2FF5540F26F
:10CBB0004D43A563A260E360FFF7E4FAA56320B9E3
:10CBC0006369C3F34323042B02D04FF0FF3038BD19
:10CBD0000D4BD3F878030028F9D0016882880969E1
:10CBE00093F875330A402BB1002A0CBF00204FF098
:10CBF000FF3038BD002A14BF00204FF0FF3038BD91
:10CC0000282A0120002C014030190120F8B51B4EC4
:10CC10001046D6F878433CB12568A2882C6922409A
:10CC200096F875432CB332BB0A46002147F0BEF993
:10CC300008BBD6F8BC32002BFBD1114F40F2FF5598
:10CC4000104C57F86C2C40F24D43A5630121A260B3
:10CC50000D20E360FFF796FAA5630028F1D1636920
:10CC6000C3F34323042BECD1D6F81C34C6F820348C
:10CC7000F8BD002AD8D14FF0FF30F8BD301901209F
:10CC8000282A0120002C0140F8B51B4E1046D6F88A
:10CC900078433CB12568A2882C69224096F87543F8
:10CCA0002CB332BB0A46002147F01AF908BBD6F86C
:10CCB000C032002BFBD1114F40F2FF55104C57F8FA
:10CCC0006C2C40F24D43A5630121A2600D20E3606E
:10CCD000FFF758FAA5630028F1D16369C3F3432332
:10CCE000042BECD1D6F81C34C6F82034F8BD002A49
:10CCF000D8D14FF0FF30F8BD30190120282A01208B
:10CD0000002C014070B5174D002295F81634C5F877
:10CD1000442313BB144B53F86C2C40F2FF56134CB6
:10CD200040F24D4301210D20A663A260E360FFF7AE
:10CD300029FAA66320B96369C3F34323042B08D0FF
:10CD40000922D5F81C34002085F84823C5F838336B
:10CD500070BD022085F8483370BD034B43F8602C4A
:10CD6000D9E700BF30190120282A0120002C0140FA
:10CD7000F8B58F4C94F87453002D00F0FD8094F8B2
:10CD800048230226531E082B3DD8DFE803F0333535
:10CD9000A23C684B163C0500FFF75CFC002840F005
:10CDA000FC80D4F83833D4F81C24FA33934227D2C9
:10CDB000FFF72CFE94F84823E4E7FFF74BFC00282C
:10CDC000EFD0D4F844330022012B84F83C2340F206
:10CDD000E880D4F84013013B0131C4E9D01394F842
:10CDE000163413B1734B43F8602C0823054684F8BE
:10CDF000483315E084F84863FFF72CFC002849D13C
:10CE000094F84823531EDBB2022B00F2AD80D4F815
:10CE10001C34D4F838239B1AC82B00F2B1800025AB
:10CE20002846F8BDD4F8C032002BF8D10722D4F838
:10CE30001C34D4F8305384F84823C4F83833002D18
:10CE4000EED0D4F834330120D4E9C921A847D7E77C
:10CE5000D4F83833D4F81C2464339342DFD2D4F8A6
:10CE6000BC72002FF4D1FFF7F5FB0028A2D00423F9
:10CE7000D4F8305384F83C7384F84833002D00F024
:10CE80008A80D4F834333846D4F82423D4F82813CD
:10CE9000A847B5E7FBF76EFA0028B1D194F8203324
:10CEA000002BA3F10203B3FA83F314BF0222012281
:10CEB0005B0984F83D2384F83E33FBF75BFA0028D6
:10CEC0007FF476AFD4F810230323C4F84C2384F8FE
:10CED0004833FBF74FFA002892D194F8F452042219
:10CEE000B4F8F612D4F8F832C4F84403A4F8501396
:10CEF000180ED4F8F812D4F8F832090C84F8530359
:10CF00001B0A84F8525384F8541384F85533D4F828
:10CF1000F81294F8FC0294F8FD3284F85613D340CA
:10CF200094F8FD1284F8570384F85C3301F00F0184
:10CF3000D4F80033B4F80603C4F85833B4F8063311
:10CF400084F85D13C3F30B13B4F8061384F8482375
:10CF500043EA102301F00F0103F00F0384F860137C
:10CF600003F5FA63A4F85E33082A18BF042A0CBF3D
:10CF7000012500252846F8BD284684F84853F8BD09
:10CF8000FFF744FD94F84853082D18BF042D0CBF3B
:10CF90000125002544E7054642E7042384F8483389
:10CFA0003EE7FAD1FFF7AEFE94F84823531E2AE776
:10CFB00030190120282A01202DE9F047054682B0CA
:10CFC0000E4690461F463A4C94F8480304280DD06C
:10CFD000082807D1D4F84033AB4207D0FFF792FEC0
:10CFE0000228F1D0012002B0BDE8F087DFF8C89038
:10CFF00059F8603CC3F34F215A0A0F29C4E9C965A7
:10D000002DD8D4F844A3BAF1000F28D094F8160410
:10D0100028B3B3F5005F42D0264831464FF4007282
:10D02000019318444DF01AFE019B03F50073C3F3FE
:10D030004F215A0A49F8603C102930D0BAF1010F4B
:10D040002DD0D4F840230AF1FF330421022001320D
:10D05000C4F8443384F84813C4F84023C3E70123D9
:10D06000062128460125324684F848130021C4F8D9
:10D070003083C4F8347384F82C5346F031FF002811
:10D08000B1D0FFF7C3FCD4F8306376B12846D4F8AA
:10D0900034330022D4F82813B0470320A3E792B218
:10D0A0000B46044E013AAD1ADAE703209BE700BFB6
:10D0B0003019012014460120282A012070B50E4D98
:10D0C00004460E4695F84833042B0BD0082B07D1A5
:10D0D000D5F8403383420CD0FFF714FE022801D06C
:10D0E000012070BD08230220C5E9D04685F84833E9
:10D0F00070BD022070BD00BF301901202DE9F04144
:10D100001C4C05468846174694F848031E460428DA
:10D1100008D0082802D00020BDE8F081FFF7F2FD1A
:10D120000228F8D1012342462846002146F03EFF5E
:10D1300068B1FFF76BFCD4F83053002DEBD0002220
:10D14000D4F83433D4F828131046A847E3E705226F
:10D15000D4F81C340120C4F82483C4F82853C4F83C
:10D160003073C4F8346384F84823C4F83833BDE816
:10D17000F08100BF3019012070B52F4C636BD905C9
:10D180001DD54FF4807240F2FF562C4BA263A6636C
:10D19000E26B2B4D1340E363D5F8C4329A0721D4D8
:10D1A00001220023C5F8B422C5F8B832224B40F260
:10D1B000FF51224A9963D96B0A40DA6370BD636BF1
:10D1C000980704D51E4B0222C3F8B822EEE7636B22
:10D1D000190723D4636B9A0625D5194B0622C3F889
:10D1E000B822E3E7D5F8182D136823F00103136084
:10D1F0000022E36A23F00803E362C5F8C022D5F8F1
:10D20000C432DB07CCD540F24C43A6630121A260B7
:10D210000C20E360FEF7B6FFA663C1E7084B0422CB
:10D22000C3F8B822C2E7636BDB06BFD5044B052207
:10D23000C3F8B822BAE700BF002C0140C53EFFFF8B
:10D2400030190120D0F82011242200232DE9F041CB
:10D25000C0F8942104460A68806804F5907522F0AD
:10D2600001020A600B604B608B6094F805C0C4F843
:10D270009C314FEA8C22C4F8943184F8903102F446
:10D280008052C4F89831C4F83831C4F828214FEAE4
:10D290000C32C4F8403102F40052C4F8343123791E
:10D2A000C4F82C214FEA0C22C4F8240113F0010029
:10D2B00002F48062C4F8302102D00422C4F8342180
:10D2C00013F0020305D0D4F8342142F00802C4F868
:10D2D00034211CF0010F0DD048B1D4F8442142F0A4
:10D2E0000202C4F844214FF48032C4F84C21002BD0
:10D2F00040F0FF80A84B03F1200053F8042F944224
:10D3000000F0BD809842F8D11CF0080F40F0CD80AD
:10D31000D4F89431002B00F0168124232846C4F859
:10D3200094310B6823F001030B6042F0B5FC012837
:10D3300015D0D4F84431002B40F01881D4F82031B6
:10D3400028465A6822F490425A609A6822F02A02CB
:10D350009A601A6842F001021A604AF00DF92379C6
:10D36000DA0761D5D4F8FC20002A00F0D980002328
:10D37000D4F8041104F13C06E263A3644FF4806224
:10D380003046E264C4E91013C4E91433C4E9183325
:10D39000C4E91A334FF48033E3654FF48073A36517
:10D3A0004AF064F9304641F003FDD4F89881C4F89E
:10D3B0008C61B8F1200F656731D1E368626999B279
:10D3C0006AB3B1FA81F77F0949B394F89001012853
:10D3D00025D030460126C4F89C710B4684F8906134
:10D3E0002226A4F87811C4F898616C4ED4F8201164
:10D3F000A6676B4E2431C4F87421E667694EC4F801
:10D400008C70C4F8886041F071FD002800F0B28093
:10D41000102384F89071C4F89C31C4F89481E26BB5
:10D4200023795268C4F814219B0777D5D4F80021DA
:10D43000002A69D00023D4F8081104F19C06C4F82E
:10D440009C20C4F8A8304022C4F8B8303046C4E963
:10D450002C33C4E93033C4E932334FF48033C4F899
:10D46000BC304FF48063C4E92812C4F8AC304AF0F1
:10D47000FDF8304641F09CFC002867D0FEE7002C08
:10D480003FF442AF94F8BC31002B3FF43DAFD4F8E9
:10D4900044311CF0080F43F00803C4F844314FF442
:10D4A0000043C4F854313FF433AFD4F89431002B27
:10D4B00055D024232846C4F894310B6823F0010387
:10D4C0000B6042F0E9FB01283FF449AFD4F8443146
:10D4D000002B47D1D4F8203128465A6822F49042D4
:10D4E0005A609A6822F022029A609A6842F0080212
:10D4F0002EE7D4F8443143F00103C4F844314FF42B
:10D500000033C4F84831F5E6D4F8A0311A6842F087
:10D5100080021A601A6842F040021A60BDE8F08189
:10D52000D4F8A021116841F480711160916841F034
:10D5300001019160116841F020011160116841F012
:10D540001001116070E784F89031E6E6D4F89C3061
:10D55000C4F88861C4F8D4505860BDE8F08184F8FC
:10D560009031A6E7284642F051FDB3E7284642F045
:10D570004DFDE3E6D4F8203184F890011A6842F4B6
:10D5800080721A609A6842F001029A609A6842F0CA
:10D5900040029A6043E700BFA01E002025BC04089B
:10D5A00055BC040859BC0408F8B5EFF311855023A5
:10D5B00083F31288D0F800311B6813F0010303D005
:10D5C000EDB285F31188F8BDD0F894210446D0F867
:10D5D00098110A4302F02102212AF1D0D0E9090171
:10D5E000884253D043D822691846531A9BB2D4F8C4
:10D5F00094710022A062202F84F8A421E0D1A269B6
:10D600005118DDD0B3FA83F67609002BD8D094F800
:10D610009021012AD4D00122D4F88801A4F87231D3
:10D6200084F890212122C4F89C61C4F86C11A4F8FC
:10D630007031C4F89421E8B1DFF858C0D4F8202143
:10D64000C0F83CC0DFF850C028320665C0F840C0C2
:10D65000DFF848C0C0F84CC041F048FC50B110237E
:10D6600084F89061C4F89C31C4F89471A8E7431A17
:10D670009BB2BCE7D4F8203100224021196284F823
:10D6800090219A6842F080029A6099E7012384F819
:10D69000A43195E7FDBB040821BC040859BC04086B
:10D6A00070B5D0F820410546E369990614D5606A43
:10D6B000EB6AC0B2002B74D0296B9847D5F8204193
:10D6C000236823F480732360A36823F00103A3601D
:10D6D000A36943F00803A361E369DA0701D50123D5
:10D6E0002362E3699B0701D502232362E3695E0796
:10D6F00001D504232362E369180701D508232362B7
:10D70000E369590614D54023236295F8BD61002EC4
:10D7100031D0D5F80031CBB12846FFF745FF95F859
:10D72000A4311BB195F8BD61002E4BD0D5F8204136
:10D73000D5F8003163B1E369DB0606D56B6B13B135
:10D740009847D5F820411023236270BDD5F82041B9
:10D75000E3691A06EFD5D5E9092393422DD0AA69CA
:10D76000D25C0133D2B2A2622A69B3FBF2F102FBAE
:10D770001133AB62DFE795F8B2010CF0B9FF236813
:10D7800023F008032360012385F8BD310028C0D0B1
:10D7900032462021FCF7E0FED5F80031002BBBD14A
:10D7A000D4E7EB696A69D054EB69EA680133B3FBEB
:10D7B000F2F102FB1133EB6180E7236823F0800371
:10D7C0002360B8E795F8B2010CF092FFD5F820413C
:10D7D0000122236823F00803236085F8BD21002877
:10D7E000A6D032462021FCF7B7FE9FE72DE9F04F87
:10D7F000AE4C83B004EB8004D4F82C4C002C6BD0DE
:10D80000D4F8AC511F46DFF8C0B290466B680646AC
:10D81000A74AC4F8A0316B6BDFF8B09263612B6B41
:10D82000A160A3616B8FE3602B8FC4F8A8212361F3
:10D830000BF6681323602A7809EB420313F95C0C9A
:10D8400053000193C3B2012B40F28680D4F800311B
:10D8500083B1984900209C464B68013024319C4597
:10D8600000F0F6801028F7D1934B93F84C10002964
:10D8700000F05081D4F8FC00002840F0C2806B68B2
:10D88000C4F8203195F82800002840F0D28094F8A0
:10D89000B2010CF02DFF02213A07034694F8B09133
:10D8A00084F8BD111CD558B317F0510F4FF00B027F
:10D8B00006F1010614BF0A211A2117F0410FC671A3
:10D8C000827114BF4023202394F8B3211943FCF73D
:10D8D00043FED4F8FC3043B3204603B0BDE8F08FDC
:10D8E00018F0020F0CD058B10B223B06827106F1E2
:10D8F0000102C27100F1158194F8B321FCF72CFEEE
