:020000040800F2
:10000000F0FF0010D11F0608F198050861FB0108F8
:100010007120060871200608712006080000000003
:10002000000000000000000000000000F598050836
:10003000F998050800000000FD98050889AA010844
:100040007120060871200608712006087120060834
:100050007120060871200608C9AF0008D1AF00085A
:10006000D9AF0008E1AF0008E9AF0008B5AC00085F
:10007000C9AC0008DDAC0008F1AC000805AD000813
:1000800019AD00082DAD0008712006087120060882
:10009000712006087120060871200608F1AF0008DB
:1000A00051C60008B1C5000861C60008A1C5000816
:1000B000D9C50008E9C50008F9C50008B1A30008C2
:1000C0005DBB0008B9A3000861BB000871200608E9
:1000D00071200608BDA30108C1A40108C5A5010837
:1000E000F9AF0008712006088111060871C60008E2
:1000F00029C6000881C6000819C6000841AD0008DD
:10010000712006087120060809C60008712006083B
:10011000C9A60108CDA70108E5DA00081DDB000823
:1001200055AD000869AD00087DAD000891AD00082F
:10013000A5AD000871200608712006087120060888
:10014000712006087120060871200608019905082B
:10015000B9AD0008CDAD0008E1AD0008D1A8010897
:10016000C1A3000865BB00087120060871200608BD
:100170007120060871200608712006087120060803
:08018000712006087120060839
:10800000074BD0F8E4105B68D0F8F0205B1A9A4276
:10801000B8BFC0F8F030012380F81C310020704751
:10802000001000E0B74B00EB800270B503EBC20418
:1080300053F832205268B2F814C01CF0010F4FEA16
:1080400080016AD15FFA8CFE1EF0020F3DD0BFF3B3
:108050005F8F257F012D5FFA85FC00F0CC80148BAB
:10806000BFF35F8F0C1803EBC404257F022D00F0D3
:10807000E3800C1803EBC404257F032D06D1A47FF5
:1080800024B193F87940002C40F0E5809488A4B2A4
:1080900044F48064948093F978C001EB000E03EB04
:1080A000CE0E9EF81CE00EF1010EE6450CD1002428
:1080B00083F8794093F87A40002C40F0B680084469
:1080C00003EBC00300225A7670BD1EF0040F5BD193
:1080D0001EF0400E00F0C880158A93F978C0666AD9
:1080E000EDB206F80C505FFA8CFE267F0EF101040B
:1080F00064B2E51CAE4283F87840A44600F02A81C1
:108100000D1803EBC5052D7FAC42C6D10EF1020C54
:108110004FFA8CFC83F878C0BFE7B2F800C02CF4AB
:10812000006C4FEA0C4C4FEA1C4CA2F800C0B2F8AD
:1081300000C01FFA8CFC4CF4806CA2F800C0A57F34
:108140004FF0000C83F878C0002D46D093F879509A
:10815000002D3FD0012483F879400C1803EBC404B0
:10816000247F022C04D11488A4B244F40064148047
:108170000C1803EBC404A47E44F0010414820844E8
:1081800003EBC0031B7F70BDA57F4FF0010C83F88C
:108190007AC0002D6FD093F87950002D70D10C1853
:1081A00003EBC404647F002C00F0AE80148893F8C5
:1081B00078C0A4B244F400740CF1010C14804FFA9E
:1081C0008CF483F87840B2F800C01CF4807FFAD1B8
:1081D000A44662E7E47EFF2CBCD00C1803EBC40479
:1081E000A57E05F0FE051582E27EFF2AC7D0FF229C
:1081F00083F87820C3E7A47F002C3FF430AF93F8D6
:108200007940002C3FF42BAF148824F480642404BC
:10821000240C1480BFF35F8F148B148883F87AC00A
:10822000A4B244F40074148030E7948824F44074B9
:108230002404240C948042E7A47F002C3FF419AF5F
:1082400093F87940002C3FF414AF148824F4806430
:108250002404240C1480948824F480642404240CC2
:10826000948093F978C018E71FFA8CF52D0631D465
:1082700093F978C011E793F87940002C8FD095E7F7
:10828000257F022D15884AD925F480652D042D0CF3
:108290001580158A666A93F978C0EDB206F80C501D
:1082A000666A1488A4B244F4007414805FFA8CFCEB
:1082B000158A0CF1010464B2EDB2355595880CF1C4
:1082C000020CADB24FFA8CF445F4806583F8784027
:1082D000958078E793F978506E1C42D0266A765DD7
:1082E0001682247F05F1010C4FFA8CFC644583F85B
:1082F00078C07FF4D2AE948824F480642404240CE3
:108300009480CAE6281900201488A4B244F480742A
:108310001480012483F8794093F9784053E7ADB293
:1083200045F400751580158A666A93F978C0EDB238
:1083300006F80C505FFA8CFC666A158A0CF1010491
:1083400064B2EDB20CF1030C35554FFA8CF483F89E
:10835000784038E7958825F480652D042D0C9580AC
:10836000CEE6E57E1582A57F83F878E01DB9247FEF
:10837000002C7FF404AF948824F480642404240C3B
:108380009480FCE61B4B01681B4A03F5727C03E0FA
:1083900063452CD053F82C2F9142F9D170B593F846
:1083A00004E0427996450AD0634505D053F82C2F56
:1083B0009142F4D06345F9D14FF0FF3070BD9E4635
:1083C0008468DEF80C50A5424FF0000208D001325C
:1083D000032A0EF10C0EE7D0DEF80C50A542F6D1C0
:1083E000DEF81050C668B542F1D150B270BD4FF002
:1083F000FF307047C03806080000014030B5EAB1D0
:108400008E464FEA014C034600F1C005002419686E
:108410009A6841EA0C0142EA0E029A60C3E900142C
:108420000C33AB42F3D1D0F8C030C0F8C44043EABB
:108430000E03C0F8C030C0F8C84030BD4FEA014E4E
:108440008C46E0E783691969B3F80CC00A6830B458
:108450009C6822F0010224680A60A28992B222EA92
:108460000C02A281027D04681F2A06D96568203AA1
:1084700008209040284245D0FEE72568082090401B
:108480002842F9D1202000FA02F2A260264A12788E
:10849000002A35D01A7E012A39D0D3F8F4200132CF
:1084A000C3F8F420EFF31181502282F31288586848
:1084B0005C6C026822EA04029C6C2243C9B202602E
:1084C00081F31188D3E90C401A6999681D6C096819
:1084D00014605061D3E90E40546090600024B3F8FA
:1084E000A800D5604C62C862106801242043106067
:1084F0001C7683F8F1408A899B8913439BB28B8158
:1085000030BC7047202000FA02F2E260BEE7002291
:1085100083F8F120D3F8F8000A68013022F0010254
:10852000C3F8F8000A60EBE70400001010B40C4C2C
:108530006368002B11DD002004F1080C0146DCF813
:10854000A03003F1C00259600C339342FBD1636841
:10855000013083420CF5807CF1DC5DF8044B704700
:1085600004000010F0B5494C04EB401C9CF8242496
:1085700002B9F0BD464B4FF08C0E0EFB003E93F857
:10858000DC6493F8DD249EF87E708CF80A749642C1
:108590004FF0000C4FEA40158EF87EC00ED002EB73
:1085A000420C03EBCC0C57009CF8E0C40CF1FF3EEE
:1085B000BEF1010F5CD9BCF1030F53D06019A0F8D4
:1085C0000814EFF31182902383F3128890F80A3491
:1085D000B0F8081443EA41030021D2B29BB280F8FC
:1085E0000A1482F311881A09217882EA13225A4068
:1085F000D9B1D0F82044D0F80C14D4F8A040D2431C
:108600001B019BB202F00F0201208840134304F1CA
:10861000C0015A0013F4004F93B202D162680243C2
:1086200062600C348C42F4D1F0BDD0F82014D0F844
:108630000C04D1F8A0401B0100F110019BB202F024
:108640000F0201208840134304F1C0015A0013F4C3
:10865000004F93B202D16268024362600C34A142BF
:10866000F4D1F0BD02F1010C0CF0030CB445A5D01F
:108670003A4403EBC202131893F8ED1400299DD07D
:108680006319012283F80A2498E700BF0400001050
:1086900028190020704700BF024B03EB401090F8F0
:1086A00025047047040000104368B0F8502010B44F
:1086B0001A83EFF31182502383F312884168446CCC
:1086C0000B6823EA0403C46C2343D2B20B6082F329
:1086D0001188D0E907418268036912681C605961FA
:1086E000D0E909415C60C46A9960B0F86010DC6050
:1086F0000023D1625DF8044B0376704710B4037D0C
:1087000001681F2B09D94C68203B202202FA03F391
:108710001C4215D15DF8044B70470C68202202FA08
:1087200003F31C42F6D00D4A4068002482F840450D
:1087300002685DF8044B22F0010202608B60704712
:10874000064A4068002482F8404502685DF8044B00
:1087500022F001020260CB60704700BF28190020A0
:10876000704700BF0B4890F83C1589B101EB4101FF
:10877000002310B4490000F244501C4650F8232056
:10878000063302B114608B42F8D15DF8044B704798
:10879000704700BF040000100B4890F83C1589B1E9
:1087A00001EB4101002310B4490000F244501C4683
:1087B00050F82320063302B114609942F8D15DF8D5
:1087C000044B7047704700BF040000100120704741
:1087D000034B00EB400003EBC00090F855057047D9
:1087E000040000101F4890F83C35002B39D00022BF
:1087F0002DE9F04300F244531B4E1C4D4FF0500E38
:108800004FF02C0C144607E053F8181B0C6090F83E
:108810003C150132914222DD197C0029F4D05F68B9
:10882000B90AA1F5801105EB010952294FF0FE08A4
:1088300098BF99F8F483EFF311898EF31288796A5F
:108840000CFB08680131C8F86C15B98A89B241F08F
:1088500001015FFA89F8B98288F31188D4E7BDE88D
:10886000F08370470400001028190020C038060863
:1088700007EE900AB8EE670A704700BFBCEEC00A68
:1088800010EE103A98B270470D4B0E49DB68DB438F
:10889000C3F30223C3F104030122DBB202FA03F3A0
:1088A00001EB000C1B0103F0F0038CF800334309CB
:1088B00000F01F0002FA00F041F82300704700BFEB
:1088C00000ED00E000E100E0122301480B8070475A
:1088D00088010020042301480B8070479C01002080
:1088E0002048D0F8E837D0F8EC2730B59B184FF087
:1088F0001A040C8001D11C4830BD1B4AD0F8EA177D
:108900004FF0000E10467546B3F1204F4FEA137C2E
:108910000CF130040EF1020E2ABF0CF1370C8470FA
:1089200080F802C0BEF1100FC5704FEA031300F1CA
:108930000200E9D100200446B1F1204F4FEA117343
:1089400003F1300C00F102002ABF373382F812C065
:1089500093740828D4744FEA011102F10202EBD19A
:10896000014830BD00F0FF1FA0010020B42282802A
:108970002E224FF4A57C4FF4EB7102814FF48772E5
:108980000023A0F802C0C1804FF4E17C96218281CF
:1089900044220370A0F80AC0C1810282438270475A
:1089A00082B01F4B002201920193019B1D4A0433A8
:1089B0000193019B1968936803F00C03042B07D003
:1089C000082B0AD0184B194AC3F8AC2702B07047DD
:1089D000154BC3F8AC1702B070475368506813F4D6
:1089E000800F00F03F00536813D1C3F388130F4981
:1089F000B1FBF0F101FB03F30A4A0B495268C2F3E1
:108A0000014201325200B3FBF2F3C1F8AC3702B0BD
:108A10007047C3F38813B1FBF0F101FB03F3EBE7FD
:108A20005028004000380240281900200024F4009B
:108A300038B5074BD3F8B0371B6A14460D46984734
:108A40004FF4007302682A600020236038BD00BF25
:108A50002819002008B5074BD3F8B03733B15B694C
:108A6000984780F00100404240B208BD4FF0FF300F
:108A700008BD00BF28190020002070472DE9F041F3
:108A800023B3164D164688469F18D5F8B0470023E5
:108A9000A4681A4641463046A0470028F5D0D5F8CC
:108AA000B03733B15B69984720B9D5F8B037002BA0
:108AB000F8D1FEE70136B74208F50078E5D1D5F8E0
:108AC000B437C5F8B8370020BDE8F081034DD5F8BC
:108AD000B437C5F8B8370020BDE8F0812819002068
:108AE0002DE9F0415BB31A4C16460F4603EB020822
:108AF00004E0D4F8B01719B14B699847D4F8B0170F
:108B00000D6900231A4639463046A8470028F0D19F
:108B1000D4F8B03733B15B69984720B9D4F8B0378F
:108B2000002BF8D1FEE70136B04507F50077E5D117
:108B3000D4F8B437C4F8B8370020BDE8F081044C4D
:108B4000D4F8B437C4F8B8370020BDE8F08100BFCE
:108B50002819002000207047034B93F8E0070038E5
:108B600018BF0120704700BF28190020826D136ACA
:108B70005B681B78FF2B08D090F8F030013BDBB22C
:108B800080F8F0301BB10120704700207047126A56
:108B90005268022013707047836D1B6A5B681B78F4
:108BA000FF2B0AD190F8F030002B03F1FF3280F850
:108BB000F02014BF0120022070470020704700BF42
:108BC00010B5124C12498CB0002384460DF10700F9
:108BD0000122CDE90230069104F6140002A90492A4
:108BE0008DF82820CDE907338DF8143009930B93C5
:108BF00084F8ACC810F06CFCD4F81428136A002B6D
:108C0000FCD19DF807000CB010BD00BF2819002052
:108C1000998B000870B5054690B008200C46FFF708
:108C2000CFFFFF2826D0FE2802D0022010B070BD52
:108C3000124E039400230220CDE90730012201A93E
:108C400006F61400CDE90135CDE90533CDE90A3347
:108C5000CDE90C338DF810308DF824300F938DF85A
:108C6000382010F035FCD6F81438186A0028FCD1EA
:108C700010B070BD012010B070BD00BF28190020D9
:108C800030B51E4D91B00023FD200DF103010122EE
:108C9000CDE905318DF8030001A905F61400CDE9F1
:108CA0000133CDE90732CDE90A33CDE90C33C5F8FC
:108CB000DC378DF810308DF824300F9303928DF847
:108CC000382010F005FCD5F814381C6A002CFCD1B3
:108CD0000120FFF775FFFF2809D0D5F8B437C5F894
:108CE000D0370922204685F8E02711B030BD042393
:108CF000022085F8E03711B030BD00BF28190020F0
:108D0000034B93F8E007032894BF0020012070472D
:108D100028190020004870470C21002030B4194B5E
:108D200000209C7B14B11D688D4206D001300B28B9
:108D300003F11003F5D130BC70479AB1124B03EB2D
:108D400040218A4219D0114B93F8E4278AB1104B85
:108D500001225A7000F5B17003EB001001238371FA
:108D600030BC70470A4B00F5B17003EB0010827104
:108D7000E1E7012283F8E427E9E7022CE3D1183B7D
:108D8000E8E700BFC4460020C4300020AC4000200B
:108D9000AC30002030B41D4C002384F8D03604F5EC
:108DA000C36004E001330B2B00F1100015D00568FF
:108DB0008D42F7D190F80EC0BCF1030FF2D1C2B1D1
:108DC000134901EB4320824209D1A1F1180203F5B6
:108DD000B17302EB031301229A7130BC704794F80F
:108DE000E42712B9012284F8E4270A4A01215170CC
:108DF000EDE70849D4F8CC2603F5B17301EB031372
:108E0000013204219971C4F8CC26E6E7AC40002079
:108E1000C4300020AC300020A8B183681BB10E4BD9
:108E200007229A7070470C4A1178D36003294FF0DB
:108E300004000CBF80214FF48071C2E9011113615D
:108E4000137590707047044A02F5805101235370E6
:108E500081F8E437704700BFAC30002010B5164CE5
:108E6000D4F810386BB11A689B88116994F80D28F2
:108E70000B4022B12BB1002384F8E03710BD002B4A
:108E8000F9D094F8E037032B0FD894F8D437013396
:108E9000DBB2072B84F8D437EDD8D4F8B427C4F864
:108EA000D027012384F8E03710BD044810F082FC7D
:108EB000A4F81808E9E700BF28190020801A060066
:108EC00070B5224B93F8DC2493F8DD349A4237D105
:108ED0001F4D95F80436E3B195F808461D4B002068
:108EE00040F20D3CB4B19A689989516016681968CE
:108EF00046F001061660A1F848C08A8992B242F491
:108F000080728A8195F804260130824203F11803A9
:108F1000E8DC70BD1A68118821F080010904090C91
:108F200011809988D162118889B241F08001118045
:108F30005462998A9689314389B291819C82E1E792
:108F400054F0ECFF0028C3D170BD00BF28190020E9
:108F500004000010D82100202DE9F0411E4B93F8A9
:108F6000DC2493F8DD349A422FD11C4F7D68002D0C
:108F700012DD3846002410F8086BA046013416B103
:108F8000037E012B1CD002691368AC4243F001033D
:108F900000F580701360F1D111F0C0FDD7F80C46D8
:108FA000002C0BDD0E4A02EBC404116893888889FB
:108FB000083203439BB294428B81F6D1BDE8F08125
:108FC00080F8F080FFF770FBDDE754F0A7FF002882
:108FD000CBD1BDE8F08100BF2819002004000010AB
:108FE000140600102DE9F04F037D02681F2B83B09B
:108FF000044609D95068A3F120052021A940014267
:1090000007D103B0BDE8F08F1068202199400142DC
:10901000F7D05149514D4968C5F8301695F80816F2
:10902000A7694F4E19BB8C2101FB0761D1F8840061
:10903000D1F8FCE0D0F800C0DEF80000B1F888807C
:1090400020F00100CEF80000BCF80C1089B221EA33
:109050000801ACF80C10297801BB1F2B6FD9A3F1C4
:10906000200120238B40D36003B0BDE8F08F8C211A
:1090700001FB0761D1F88410D1F810C00868DCF852
:10908000001021F00101CCF80010818921F48071D9
:109090000904090C818129780029DED04FF08C0861
:1090A00008FB07F806EB08032E49D3F8FCA0D3F819
:1090B00084200193504608F11809D2F800B0894481
:1090C0004FF06AFD019BD5F838262649012083F828
:1090D000D000002A3AD0BBF800309BB243F08003A6
:1090E000ABF8003008F174084FF0FF334144CBF87F
:1090F0002C3058464FF0AAFF8C2303FB0766002351
:109100004946C6F8A03050464FF0DCFDD6F8FC309A
:1091100016225A601A6842F001021A60D6F88420BA
:10912000B6F88830126891890B439BB293810A4943
:10913000237D49682268C5F834161F2B8FD820215B
:1091400001FA03F3936003B0BDE8F08F11F0E6FC81
:109150000449C5F83806BEE7001000E0040000101E
:1091600028190020A41900202DE9F04111F0D6FCA7
:109170001F4F204E05464FF000087C68002C2ADD6A
:1091800000231A4607EB0321013391F8F9109C42A2
:1091900042EA0102F6D142EA0804E4B2904673685A
:1091A000C3F30803A3B9EFF311838BB915F0DCF80F
:1091B000431BB3F5FA6F02DCB8F1000FDDD124B127
:1091C0000D4B93F87029542A09D02046BDE8F08150
:1091D00011F078FCECE744464FF00008DFE7B3F805
:1091E00078290132A3F878292046BDE8F08100BF34
:1091F0000400001000ED00E028190020BA4B1B7895
:109200000BB9012070472DE9F04FB84DB849D5F89A
:10921000B427B84BA1FB02125209A3FB023A4FEA52
:10922000DA0A0AEB8A0AA2EB4A0A85B0AE4A5FFA6A
:109230008AF3039302F61C1302F23C6701930023A6
:1092400007EB8A0A02F581699846A74BD3F8243ABE
:10925000434540F31481D9F81830D9F80460D3E9B4
:109260003A34029311F05AFC029B95F870C90290AF
:109270004FEA860E95F884090EF1085E04F18061CC
:109280000EEB431E3939BCF1540F0EEB81110EEB7E
:10929000801301D1A5F87A09994240F266811A68D3
:1092A000002A00F05A811A6C002A00F06C81D3F871
:1092B0008020002A00F06981D3F8C02003F5807374
:1092C000002AE9D1A3EB0E0E99424FEAAE1E40F2FE
:1092D0004C81A4EB0E0145294FF0000428BF452125
:1092E00003EB81119B46204626460DE01A6C002AAE
:1092F00040F0CD80D3F88020002A40F0F380D3F8EE
:10930000C02003F580732AB9994206D91A68002A49
:10931000ECD04033994200F2BE80112E344640F228
:109320002881D6F1150200F124817349029E4B6B0E
:109330009E45D5F8883938BFC1F834E0F11A0029C4
:1093400017DB03F5F42303F590739E4288BF029B5D
:10935000694988BF0533C5F88839674B5B6B052BB6
:1093600086BF053BDBB2002385F884394FF0FF331D
:109370004B6342B100FA02F2C4F11404012000FA76
:1093800004F444EA02005D4BC0F3C43203EB8202F2
:10939000D2F8481400F01F0203EB8202D2F84824EE
:1093A00042EA0131C0F3441203EB8202C0F384208D
:1093B00003EB8000D2F8483441EA0311D0F8483476
:1093C00041EA032181EA112383EA131303F00F0317
:1093D0000F2B40F0B080B1F5803F80F0AC80BCF145
:1093E000540F4FEA111104D1B5F874390133A5F8BF
:1093F00074393D4AD2F82439B1F5606F03F10103A5
:10940000C2F8243900F0D380019B998197F8583035
:109410000398834210D0DAF808203B689B1A3B601F
:10942000DAF830207B689B1A7B600023CAF808308A
:10943000CAF8303087F858003B6801333B60DAF8EF
:1094400008300133CAF808304FF6FF73994207D14C
:109450007B6801337B60DAF830300133CAF8303092
:10946000019B08F101081433B8F1080F07F15C07FC
:109470000AF15C0A019309F120097FF4E6AE1A4A69
:109480000123012082F8203A05B0BDE8F08F803337
:1094900099427FF642AF5A469A1A9211541C184AC2
:1094A00082FB04B2A2EBE472012AB8BF0122904011
:1094B00001241644013A04FA02F210431C462268C1
:1094C00002B3226C002A62D0D4F88020002A60D037
:1094D000D4F8C02004F58074AAB1A142EFD89B460D
:1094E000234611E7C03315E70400001028190020B7
:1094F0001F85EB51CDCCCCCC88010020C0380608AC
:10950000565555554034A142E9D9E31A9B115A1CCE
:109510002F4B83FB02B3A3EBE273012BB8BF0123F4
:1095200098401E440122013B02FA03F318432346EC
:109530009B462346E8E6BCF1540F2CD0254AD2F8CE
:1095400024390133C2F82439224AD2F820390133B0
:10955000C2F820394FF6FF7158E74033A3EB0E0EE7
:1095600099424FEAAE1E3FF6B4AE10B1013885F80D
:109570008409BCF1540F7FF473AFB5F87639013329
:10958000A5F876396CE780339CE6C0339AE68034E0
:10959000B9E7C034B7E7B5F874390E4A0133A5F816
:1095A0007439D2F824390133C2F82439CCE795F85C
:1095B000DD3403EB430305EBC303434493F8ED347D
:1095C0000D2B7FF421AF019A802393771EE700BF14
:1095D000565555550400001010B5044659F030FB9F
:1095E00081B22046BDE81040FEF7BCBF38B50B4D38
:1095F00000EB400005F2445303EBC00393ED027A05
:10960000D3ED037AE7EE007AC4002C44B0EE670A8B
:1096100059F016FBD4F84435186038BD040000102A
:109620000C4AF8B5136855692B4003EA00055561EB
:109630007DB1094F0126B5FA85F4C4F11F0407EB8B
:10964000840306FA04F4D3F88C0903689847A54309
:10965000F1D1F8BD003C014028190020038A2DE912
:10966000F047B0F80C901FFA89F919EA03092BD0DA
:1096700005460E464FF000474FF00008B9FA89F34F
:1096800027FA03F2D24391B21B3B298209EA02096D
:10969000042B16D8DFE803F0352C231A0300B36A35
:1096A000002B37D003F1FF3A1FFA8AFAC6F8288058
:1096B000746A34B123682046514698476468002C88
:1096C000F8D1B9F1000FD9D1BDE8F0877068696BA6
:1096D000036889B29847B9F1000FCFD1F4E7B068B9
:1096E000A96B036889B29847B9F1000FC6D1EBE7BF
:1096F000F068E96B036889B29847B9F1000FBDD1F2
:10970000E2E73069296C036889B29847B9F1000F24
:10971000B4D1D9E7E96A1FFA81FAC9E70A4608B560
:10972000054920B905484FF0B7FD034808BD044876
:109730004FF0B2FD004808BDF422002054AF0608E7
:109740007CAF060810B5044C04480A4621464FF089
:10975000A3FD204610BD00BFF4220020A4AF0608E0
:1097600010B5044C04480A4621464FF095FD2046AA
:1097700010BD00BFF4220020B8AF060810B5044C9D
:1097800004480A4621464FF087FD204610BD00BF21
:10979000F4220020C4AF060810B5104CD4F8CC2A2F
:1097A00094F8CB3A2AB103F001039BB9136892886D
:1097B0001A8353F057F802E05B69984720B9D4F850
:1097C000B037002BF8D1FEE7D4F8B437C4F8B83777
:1097D000002010BD136892885A83EAE728190020F8
:1097E00010B592B00A0E04468DF805200A0A00232F
:1097F000080C44F0400C8DF807200122CDE9073316
:10980000CDE90D338DF804C08DF806004FF0950CAE
:1098100017488DF8081004938DF818300A928DF8C7
:109820002C300F938DF84020119301A906220DF1E1
:1098300003038DF809C00C9003910592099352F02F
:10984000E1FF00B98CB90B4C082303A904F61400FE
:1098500084F8AC380FF03CFED4F81428136A002BBF
:10986000FCD19DF8030012B010BDFF2012B010BD56
:10987000998B0008281900202DE9F041314C05464C
:10988000884617461E4694F8E007042839D0082871
:1098900007D1D4F8D837AB4206D0FFF7F1F9022848
:1098A000F1D00120BDE8F081FC23D4F8142884F81D
:1098B000D83A117B244BC3F8608051B1526942B150
:1098C00094F89C28002A0CBF4FF480724FF4007269
:1098D00001E04FF480729A661C491D480FF0F8FDB4
:1098E00001220623C4F8BC87C4F8C057C4F8C8775F
:1098F000C4F8CC6784F8C42784F8E0370020BDE8BA
:10990000F08194F8D63753B969021820FFF768FF41
:1099100038B994F8E037082BC6D0FE23C5E72946AE
:10992000F3E7D4F81428136A002BFCD155F0F8F8AB
:10993000D4F81C3813B11A689B881383FFF78EFA8A
:109940000320AFE72819002088010020C001002073
:109950003C21002070B5234E96F8E037042B0546D5
:109960000C4609D0082B21D1D6F8D837834236D0FF
:10997000FFF786F9022819D100213720FFF730FFC1
:1099800021461720FFF72CFFC0B996F8D6377BB9D0
:1099900069021920FFF724FF80B9082386F8E03711
:1099A000C6F8DC47C6F8D857022070BD012070BD4C
:1099B00029461920FFF714FF0028EED0D6F8142806
:1099C000136A002BFCD155F0ABF8D6F81C3813B154
:1099D0001A689B881383FFF741FA032070BD0220A9
:1099E00070BD00BF281900202DE9F843214D95F8DE
:1099F000E047042C8046894617461E4608D0082CAE
:109A000002D00020BDE8F883FFF73AF90228F8D128
:109A100095F8D637B3B141461120FFF7E1FEC0B942
:109A2000D5F8B437C5F8BC97052285F8E027C5F806
:109A3000C087C5F8C877C5F8CC67C5F8D03701200E
:109A4000BDE8F8834FEA48211120FFF7C9FE00283E
:109A5000E6D0D5F814381C6A002CFCD155F060F81B
:109A6000D5F81C38002BCCD01A689B88138320466D
:109A7000BDE8F88328190020817899B10C48D0F806
:109A8000DC3A102B0FD003EB430202444FF0200CC2
:109A9000013382F8E01A012182F8E1CA82F8E21A61
:109AA000C0F8DC3A70470521002014F0FFBE00BF6B
:109AB000281900202DE9F041B34C94F80C6894B0BB
:109AC000002E00F0B28194F8E03704F2FC775A1EC1
:109AD000082A00F24681DFE812F03B007300BC0068
:109AE000440132015B011B004401090052F08AFE6F
:109AF000002840F0FB82D4F8D037D4F8B427FA33EA
:109B0000934280F02B81FFF7A9F994F8E037DEE764
:109B100052F078FE0028EED0D4F8DC270023012A8A
:109B200084F8D43740F20E83D4F8D817013A0131C3
:109B30000823C4F8DC27C4F8D81784F8E037A3F169
:109B40000806B6FA86F67609304614B0BDE8F0810C
:109B500000210846FFF744FED4F814280546136A8E
:109B6000002BFCD154F0DCFFD4F81C3813B11A6878
:109B70009B881383012D40F0F1804FF0000840F2E4
:109B8000AB11082084F8D587FFF72AFE052800F0DE
:109B9000B181012800F06681D4F81428136A002BE3
:109BA000FCD154F0BDFFD4F81C3813B11A689B885F
:109BB000138394F8D537002BBFD0022384F8E03705
:109BC00094F8D5370021022B0CBF4FF080450D468D
:109BD0003720FFF705FE29462920FFF701FED4F8BC
:109BE00014280546136A002BFCD154F099FFD4F8D1
:109BF0001C3813B11A689B881383002D40F0AE8087
:109C000094F8D537022B00F0E18184F8D657002173
:109C10000920FFF7E5FD002800F071810025D4F848
:109C20001428136A002BFCD154F07AFFD4F81C38A6
:109C300013B11A689B881383002D00F08F800021D8
:109C40000A20FFF7CDFD002840F08D81032384F822
:109C5000E037102105A8FEF7DDFF00287ED1BDF812
:109C600015209DF81C309DF8141084F8EA1752BA9C
:109C7000A4F8E8279DF8172084F8EB279DF8182012
:109C800084F8EC279DF8192084F8ED279DF81A2018
:109C900084F8EE279DF81B2084F8EF2703F00F01CE
:109CA0001A099DF8213084F8F4271B019DF8222021
:109CB000DDF81D0084F8F517DBB243EA121302F059
:109CC0000F0200BA03F5FA6384F8F827D4F81428D1
:109CD000C4F8F007A4F8F637136A002BFCD154F04F
:109CE0001FFFD4F81C3813B11A689B88138394F8AB
:109CF000D637ABB94FF400711020FFF771FDD4F8DF
:109D000014280546136A002BFCD154F009FFD4F83F
:109D10001C3813B11A689B881383002D7FF4F3AEAF
:109D20001A480FF047FD00220423A4F81808304613
:109D3000C4F8DC2784F8E03714B0BDE8F081D4F82B
:109D4000BC074FF40071FEF765FF012800F0AB80FF
:109D5000022800F0B080002800F0158194F8E03768
:109D60005A1ED2B2022A0BD8D4F8B427D4F8D0178E
:109D7000521AC82A7FF6E3AEFFF770F894F8E0377E
:109D8000042B7FF4DCAEDFE62819002040787D014B
:109D9000D4F81428117B136A00294CD05269002A88
:109DA00049D094F89C28002A45D0B3FA83F35B0984
:109DB000002BD3D004AA002305920222CDE906325B
:109DC0000DF10F020B92C548ADF81030012205A924
:109DD000CDE90933CDE90E33CDE910338DF82030CC
:109DE0008DF8343013930C928DF848200FF070FBEF
:109DF000D4F814381D6A002DFCD19DF80F3003F003
:109E00001F03052B00F08681FFF728F8D4F8C887D8
:109E1000B8F1000F6BD0D4F8CC37D4F8C0172A466D
:109E20000120C04794F8E03751E6304684F8E067F7
:109E300014B0BDE8F081D4F8BC3794F8C417A74833
:109E400003EB01214FF4807252F096FC94F8C43772
:109E50000133DBB284F8C437A3F10203B3FA83F30E
:109E60005B09A5E704AB06939C488DF834500423A6
:109E700005A9CDE90988CDE90B88CDF814808DF8C6
:109E80002080CDF8388007930FF022FBD4F81428F7
:109E9000136A002BFCD19DF81330AB2B04BF0223B7
:109EA00084F8D5377AE6D4F8D037D4F8B4276433B9
:109EB0009342BFF453AFD4F81428136A002BFCD19B
:109EC00054F02EFED4F81C3813B11A689B88138303
:109ED000FEF7C4FFD4F8C8574DB10022D4F8CC37F0
:109EE000D4F8C0171046A84794F8E037EFE594F887
:109EF000E037ECE5D4F8142884F8D5574EE6102165
:109F00003846FEF787FE00287FF488AE94F80B38B9
:109F1000DB077FF583AE94F8FC17891100F08F8082
:109F200001297FF47BAE94F80328DFF8B4C19200D6
:109F30000546D2B216210220C0F108038B4228BF89
:109F40000B46C3F1080002419D40C91A45EA0205CB
:109F50004FF000001CF8012FEED16B1C9B02C4F8DF
:109F6000E43735465BE6D4F81428136A002BFCD19D
:109F700054F0D6FDD4F81C38002B3FF4C4AD1A6859
:109F80009B881383BFE5D4F81428136A002BFCD1F7
:109F900054F0C6FDD4F81C3813B11A689B8813839B
:109FA000D4F8C8570423002084F8E03784F8D40795
:109FB000002D3FF4C9ADD4F8CC37D4F8BC27D4F881
:109FC000C017A84794F8E0375A1ECAE629463A2037
:109FD000FFF706FC04AB0693042307938046012396
:109FE0003E488DF8343005A9CDE90955CDE90B552A
:109FF00005958DF820500E950FF06AFAD4F81438B4
:10A000001A6A002AFCD1B8F1000F11D11A6A002A8D
:10A01000FCD154F085FDD4F81C3813B11A689B8824
:10A020001383049B1BBAC3F3807384F8D637EEE521
:10A030001A6A002A9CD01A6A002AF9D198E794F883
:10A04000013894F80508DFF89CE003F00F03800165
:10A0500001255FFA80FC9D4006200323C0F1080221
:10A060009A4228BF1A46C2F108004CFA00F091400B
:10A070009B1A41EA00011EF801CF4FF00000EDD11C
:10A0800094F802E8DFF860804FEA8E1E02315FFA32
:10A090008EFE4FF00C0C062200E00022C2F10802F6
:10A0A000624528BF6246C2F108004EFA00F09340B4
:10A0B000BCEB020C18F801EF43EA0003EDD10133C9
:10A0C0008B40E917A3FB055203FB01226D0A45EA09
:10A0D000C255C4F8E4573546A1E500BF3C21002035
:10A0E0002B2100202D2100202A210020D4F8142823
:10A0F000136A002BFCD1019054F012FDD4F81C38E7
:10A10000019813B11A689B881383042384F8E037FD
:10A11000064619E5D4F8C857D4F8B427C4F8D027B0
:10A12000072384F8E037002D3FF409ADD4F8CC378D
:10A13000D4F8BC27D4F8C0170120A84794F8E0371A
:10A140005A1E0EE615D00423D4F8142884F8E037FC
:10A15000136A002BFCD154F0E3FCD4F81C38002B1C
:10A160003FF4FCAD1A689B88138394F8E0375A1EBD
:10A17000F7E5FEF785FD02287FF4F0ADD4F814383A
:10A180001A6A002AFCD1E6E7084B10B5D3F8103B59
:10A1900018440C46807D0FF0C7FD18B18288036813
:10A1A0000CB11A8310BD5A83FCE700BF28190020A8
:10A1B00010B42A492A4A91F804367BB3D2F8B04841
:10A1C000A04239D0012B29D0D2F8C848844239D0D6
:10A1D000022B23D0D2F8E048A04235D0032B1DD06B
:10A1E000D2F8F848A04231D0042B17D0D2F8104949
:10A1F000A0422DD0052B11D0D2F82849A04229D059
:10A20000062B0BD0D2F84049A04225D0072B05D011
:10A21000D2F85849844208BF07230ED003F1010C3D
:10A2200081F804C603EB430102EBC1025DF8044B65
:10A23000C2F8B008184670470023DBB218465DF834
:10A24000044B70470123F8E70223F6E70323F4E702
:10A250000423F2E70523F0E70623EEE704000010ED
:10A260002819002038B5424C8C2303FB004393F897
:10A270008B3003B938BD94F8DCC494F8DD349C45C8
:10A280000ED003EB430204EBC20292F8E0E40EF1BD
:10A29000FF35012D4FEA430246D9BEF1030F3ED0F0
:10A2A0008C2202FB0042A2F87C10EFF31181902374
:10A2B00083F31288B2F87C5092F87E3043EA45036B
:10A2C0000025C9B29BB282F87E5081F311882949DA
:10A2D0001A090D7882EA13225A4005B1D2431B01B4
:10A2E0009BB202F00F021A4391F808365BBB8C2335
:10A2F00003FB0044D1F8283AD4F80401012198471F
:10A30000D4F80011B4F888508A8AD4F8FC302A4373
:10A310008A8258601A6842F001021A6038BD5D1CDA
:10A3200005F003056545BBD0134404EBC3030344A8
:10A3300093F8ED140029B3D08C2303FB00430122D2
:10A3400083F87E20ACE78C2303FB0044D1F8285A25
:10A35000D4F88430D4F800115B79086903F0FC0369
:10A3600018440421A847D4F800318000988138BDF2
:10A37000281900200400001043680B4A23F04073A2
:10A3800023F4807343F48073436083681A4042F07F
:10A3900002028260C36A0139CAB223F4700141EA41
:10A3A0000251C162704700BFFDF7FFC0704700BF98
:10A3B0000020FDF737BE00BF0120FDF733BE00BF10
:10A3C0000220FDF72FBE00BF10B1036882881A83F8
:10A3D000704700BF10B1036882885A83704700BF7E
:10A3E00010B404698269E468416814604024D46050
:10A3F000446900230C31C2E90433C2E90633C2E9DF
:10A400000833C2E90A33C2E90C33936093635160A5
:10A4100084B1C269E0689363C2E90233C2E90433DC
:10A42000C2E90633C2E90833C2E90A33C2E90C3390
:10A43000C2E900015DF8044B704700BF4368002289
:10A440001A60037D1F2B08D9203B2022016802FAE5
:10A4500003F343F01803CB6070472022016802FA2F
:10A4600003F343F018038B60704700BF0268136A60
:10A4700011B1D96901B3143330B49C681D68916976
:10A48000DDB14FF4806088618D60104640690C61D9
:10A4900080B15968D369C9B10A464FF480619A60A6
:10A4A0009961224312F0010F14BF00224FF40052B1
:10A4B0001A621C6130BC704770478D61054D4FF0CA
:10A4C000FF0C05F888CF00688D60DFE7024A9A60CC
:10A4D0009961E6E7880100203C2400200168F8B576
:10A4E000D1E9042304465568002B49D09861107DBA
:10A4F0005E681F2831D81768202202FA00F040F069
:10A500001800B8601A7D1F2A32D91868203A202313
:10A5100003FA02F242F01802C26000232B6033609B
:10A520003368896943F01003336028464EF0CAFB54
:10A5300023683046D9694EF0C5FB2B68226843F08A
:10A5400001032B603368526843F001033360938842
:10A550009BB243F003039380F8BD17682038202294
:10A5600002FA00F040F01800F8601A7D1F2ACCD8DB
:10A570001868202303FA02F242F018028260CCE746
:10A58000137D90611F2B1CD81068202202FA03F360
:10A5900043F01803836000232B602B68896943F024
:10A5A00010032B6028464EF08DFB2B68226843F089
:10A5B000010352682B6093889BB243F0020393809F
:10A5C000F8BD1068203B202202FA03F343F0180381
:10A5D000C360E0E72DE9F0417F4D804E07463C68BF
:10A5E00097F888806368B888012284F824201A8844
:10A5F00022F040021204120C1A802289824223D0D7
:10A60000198821F038010904AB424FEA114100F0EA
:10A61000BF80734A934200F0BB800246B2F5807F50
:10A62000A8BF4FF48072022AB8BF0222002A92FA11
:10A63000A2F2B2FA82F208BF4FF0FF32013A41EAC9
:10A64000C20292B21A802081397BA27A8A420CD04F
:10A650001A8822F003021204120C1A801A8892B28D
:10A66000002900F092801A80A1721A8892B242F0FA
:10A6700040021A80226A9168002900F0A3804FF0FE
:10A68000000C1432E64652F8100C8E4400EA060123
:10A6900020B1B1F1805F23D0616909B352F8140C85
:10A6A000143200EA060110B1B1F1805F18D052F8FF
:10A6B0000C1C0CF1010C0029E5D1227B82B1B8F110
:10A6C000000F0DD0BCF1010F6FD8BEF1070F6CD891
:10A6D0000CEB8C018900226A11440A7B002A64D0A9
:10A6E000226A92684FF00008002A53D0B8F1000F98
:10A6F00002D098F80C2022B1BA6812B11168928881
:10A700004A83226AD2F800E0226A5168226A92687B
:10A71000501E9AB1BEF1000F23D01EF801CB1A894A
:10A720009207FCD5A3F80CC01A89D207FCD59A89E8
:10A7300092B209B101F8012B0138EBD2236A1B7BDD
:10A74000E3B9236A1B697BB1236AD7F894001B69BC
:10A75000984701280DD0022806D100232362BDE8C6
:10A76000F0814FF0FF0CDAE7D4F82080236A14332D
:10A770002362236A9B686BB16368B7E7BB68002BF1
:10A78000DFD01A689B881383DBE742F003026AE795
:10A79000420843E7236A1B68DBB1236AD3E90072EE
:10A7A00022620022C3E9002219E700213846FFF7A0
:10A7B0005DFEBB6813B11A689B8853833846BDE8B9
:10A7C000F0418BE6227B002A8AD0B8F1000F82D1BB
:10A7D00086E72362C3E700BF003800400000FFFFA8
:10A7E000003C004038B5D0F8E0102B4B04465A68C6
:10A7F000D0F8D80071B1131A99420BDC94F8D0301C
:10A80000C4F8D820012B10D0D4F8D4300133C4F8C8
:10A81000D43038BDD4F8E430C4F8D8200344C4F8A8
:10A82000DC3094F8D030012BEED16168201D04F1AA
:10A83000E805EFF3118C102383F3128863681B6A19
:10A840000BB3D4F8F0302A461BB1D3691432002B75
:10A85000FBD10B6A6BB1996839B9934209D0196879
:10A8600029B15B6899680029F7D01433F3E7C3E98D
:10A8700000055FFA8CFC8CF31188D4F8D4300133D6
:10A88000C4F8D43038BD0D625FFA8CFC8CF31188AB
:10A89000FFF7A0FEB8E700BF001000E02DE9F0418F
:10A8A000826992F8DC30012B8AB005464CD0023B1D
:10A8B000012B54D892F84C31D2F89C202E4C63F0E6
:10A8C0007F0313708669D6F8A030D6F8108003F1A4
:10A8D000010E0FCCEC46ACE80F00D6F89C30CDE969
:10A8E000003E0FCCACE80F0094E8030006F110071F
:10A8F0008CE80300EFF31180102383F3128833698F
:10A900001B6A002B2FD0029B6A461BB1D3691432FD
:10A91000002BFBD1D8F8203073B1996839B9934234
:10A920000AD0196829B15B6899680029F7D01433F7
:10A93000F3E71F60C3F804D0C0B280F31188AA699E
:10A9400011690B6A002BFCD1D2F8A0305A8852BA98
:10A95000EA819A8852BA2A82DB885BBA6B8201202C
:10A960000AB0BDE8F081C8F820D0C0B280F31188E9
:10A970003846FFF72FFEE2E7883D06082DE9F04153
:10A9800090F8DC30D0F8A050012B8AB0044672D089
:10A9900016D8D0F89C304FF0FF321A605A609A6097
:10A9A000DA60D0F8E0300522B3F57A7FC0F8F02005
:10A9B0007CD8032380F8DC3001200AB0BDE8F081A8
:10A9C000023B012BF8D890F84D31D0F89C20524E24
:10A9D00063F07F031370D0F8A030D0F8108003F13B
:10A9E000010E00F110070FCEEC46ACE80F00D4F8D2
:10A9F0009C30CDE9003E0FCEACE80F0096E8030096
:10AA00008CE80300EFF31180102383F3128823698D
:10AA10001B6A002B73D0029B6A461BB1D3691432A8
:10AA2000002BFBD1D8F8203073B1996839B9934223
:10AA30000AD0196829B15B6899680029F7D01433E6
:10AA4000F3E71F60C3F804D0C0B280F31188226915
:10AA5000136A002BFCD16B885BBAA4F8D030AB88AA
:10AA60005BBAA4F8D230EB8801205BBAA4F8D430EA
:10AA70000AB0BDE8F08190F84C2190F84D319B1A56
:10AA80005B100133DBB205EB430235F813305BBAE0
:10AA9000A0F8D03053885BBAA0F8D23093885BBA64
:10AAA000A0F8D43001200AB0BDE8F08103691A7B18
:10AAB00072B35B6963B390F898304BB390F84C3144
:10AAC000D0F89C20C4F8A40063F07F03137090F8C2
:10AAD0004C1190F84D31D0F8A0201048C4F8040172
:10AAE0005B1A07330121C4F8FC30D4F89C3084F899
:10AAF00000110A44C4E93D3284F8DC105CE7C8F870
:10AB000020D0C0B280F311883846FFF763FD9EE77E
:10AB1000022384F8DC304FE7883D060801800008F6
:10AB200008B51D200FF000F908B183794BB11E2044
:10AB30000FF0FAF808B1837903B108BD5523C3803B
:10AB400008BD5523C380F2E7D3B2012B23D870B5DB
:10AB500002EB4202114C4FEA820E4FF0000C2246EB
:10AB60000EF10805634604E00133152B11D012F8ED
:10AB70001CCF6045F8D192F801C08C45F4D15659EC
:10AB8000002EF1D0C3EBC3030EEB83030433E018B4
:10AB900070BD002070BD0020704700BFB03D0608AA
:10ABA00010B40C4C002304F6183C01E0152B0CD01B
:10ABB00003EB430201331CF802108142F6D1224418
:10ABC0005DF8044B92F91A0B70474FF0FF305DF8B7
:10ABD000044B704728190020D3B2022B21D830B57E
:10ABE00002EB4202104D114C4FEA820C0CF10C0E9C
:10ABF0002A46002304E00133172B10D052F82C4FC3
:10AC0000A042F8D114798C42F5D152F80E40002CB4
:10AC1000F1D02C2202FB03C30833E81830BD00201A
:10AC200030BD0020704700BFC0380608000001405A
:10AC3000002838D030B51C4D90F804C0002305F62C
:10AC4000183401E0152B2CD003EB43020133A15C37
:10AC50006145F7D12A44046892F91A3B90F805E05F
:10AC6000DAB2022A1DD803EB4303104810494FEA19
:10AC7000830C02460CF10C05002304E00133172B72
:10AC80000FD052F82C1F8C42F8D111797145F5D1B3
:10AC900051590029F2D02C2202FB03C30833184477
:10ACA00030BD002030BD704728190020C03806088C
:10ACB000000001400348D0F89C300BB18C3018479D
:10ACC000704700BF880100200348D0F8C0300BB1A6
:10ACD000B0301847704700BF880100200348D0F803
:10ACE000E4300BB1D4301847704700BF8801002012
:10ACF0000348D0F808310BB1F8301847704700BF4F
:10AD0000880100200348D0F82C3113B100F58E7073
:10AD100018477047880100200348D0F8503113B11C
:10AD200000F5A07018477047880100200348D0F84C
:10AD3000743113B100F5B2701847704788010020D4
:10AD40000348D0F8983113B100F5C4701847704724
:10AD5000880100200348D0F8BC3113B100F5D6704B
:10AD600018477047880100200348D0F8E03113B13C
:10AD700000F5E87018477047880100200348D0F8B4
:10AD8000043213B100F5FA701847704788010020AB
:10AD90000348D0F8283213B100F506701847704701
:10ADA000880100200348D0F84C3213B100F50F7031
:10ADB00018477047880100200348D0F8703213B15B
:10ADC00000F5187018477047880100200348D0F834
:10ADD000943213B100F521701847704788010020A4
:10ADE0000348D0F8B83213B100F52A7018477047FD
:10ADF00088010020094B0A4A013800EBC00003EB30
:10AE00008000116BD0F88C30064883420CBF4FF4A1
:10AE100000134FF480030B43136370478801002035
:10AE2000003802400060024070B501383C4C3D4D96
:10AE300000EBC00C04EB8C0C9646DCF88C603A4AB4
:10AE4000AE420CBF4FF400154FF48005166B35432E
:10AE50001563CCF89C10CCF8A4303449DCF8903061
:10AE60008B424FEAC0023ED001F580618B423AD05E
:10AE7000A1F57A718B4247D001F580618B4243D0B6
:10AE8000A1F57A718B4241D001F580618B423DD0B2
:10AE9000A1F57A718B4235D001F580618B4231D0BA
:10AEA000A1F57A718B4233D001F580618B422FD0AE
:10AEB000A1F57A718B422DD001F580618B4229D0AA
:10AEC000A1F57A718B4227D001F580618B4223D0A6
:10AED000A1F57A718B4221D0154D01F580618B422D
:10AEE00018BF002500E0134D104404EB8003CEF39F
:10AEF0008711C3F8AC5093F8A100BDE87040002260
:10AF000051F00EBF0C4DEFE70C4DEDE70C4DEBE7AC
:10AF10000C4DE9E70C4DE7E70C4DE5E7044DE3E7A1
:10AF200088010020006002400038024010600240AA
:10AF30000080002820800010008000180088001089
:10AF40000080201020800020008800200080202029
:10AF5000800AA0F58010522808D8054B184490F8B4
:10AF6000F4330D2B02D8034AD056704700207047A7
:10AF7000C0380608D4AF0608094910B54B6C094C17
:10AF800043F480434B644022002104F68C1058F0B7
:10AF900032FC4FF0FF33C4F8583BC4F85B3B10BDA4
:10AFA000003802402819002058B183884FF0004231
:10AFB000B3FA83F332FA03F303D002490A68134366
:10AFC0000B607047003C01400120FEF729BB00BF29
:10AFD0000220FEF725BB00BF0420FEF721BB00BF07
:10AFE0000820FEF71DBB00BF1020FEF719BB00BFF5
:10AFF0004FF47870FEF714BB4FF47C40FEF710BBA3
:10B0000030B50C4683B0054618B3036803F13F43DF
:10B0100003F57E039B0A104A134493F83C0751F052
:10B020007FFFA988009104F00303C4F381028DF827
:10B03000043028688DF80520C4F300136946C4F372
:10B0400041148DF806308DF807404DF0F7FC03B041
:10B0500030BD4FF0FF33DEE7C038060800B1CFE760
:10B06000704700BFF8B5CB7813B900252846F8BD66
:10B0700000F110070C460646897838460EF0C4FBEE
:10B0800005460028F1D0E0780EF04EFEB06123783E
:10B090000133DBB210B1C371222383710921FFF7A1
:10B0A000DDFFB069FFF790F90D4AD2F8B437632B92
:10B0B000FBD90C480EF07EFBB082384649F02CFBE1
:10B0C000074630B9E0780EF02FFE0EF08DFE3D46BB
:10B0D000CCE7306986F8D87055F00EFDC6E700BFA2
:10B0E0002819002040420F000B4B10B5D3F8103B3D
:10B0F00003440446987D0EF017FE60B12E22827143
:10B10000621CC2710121FFF7A9FF20460021BDE8A2
:10B110001040FFF739B810BD2819002070B50E4C4B
:10B12000D4F8246A002E15DD04F58164002503E0BF
:10B13000B54204F120040DD0237F0135002BF7D058
:10B14000E0680028F4D0217DFFF75AFFB54204F1F2
:10B150002004F1D1012070BD04000010F8B5037D7A
:10B1600085691F2B04464DD90168A3F120024E6862
:10B1700020209040064234D010239340C860CB601A
:10B180004B68D340DE0700F18380EFF31183502238
:10B1900082F312882A6C1168C9075AD4516889B29F
:10B1A00071B9D5E90960864250D0AF690744D760CC
:10B1B00073D9301A80B25060AE62002185F86410F5
:10B1C000116841F00101DBB2116083F3118895F839
:10B1D0006430002B44D1237D1F2B27D92168A3F194
:10B1E00020024C6808209040044200D0C8604C689F
:10B1F000042000FA02F2224203D0203B00FA03F3BB
:10B20000CB60F8BD026820201668984006421946B7
:10B210000ED010219940906091601168D940C80704
:10B22000B3D5012101FA03F39360AEE72268194612
:10B23000106808238B40184200D0936010680423E4
:10B2400003FA01F10142DCD09160F8BD012285F8DA
:10B250006420DBB283F3118895F86430002BBAD0F8
:10B2600095F87C30002BB6D195F871000EF05CFD9E
:10B270002A6E938923F008031B0401211B0C938180
:10B2800085F87C100028A6D02021FFF7B9FEA2E7A0
:10B29000012303FA02F2CA6077E72E69301A80B2FE
:10B2A0005060A96289E700BF70B503792D4C002B6F
:10B2B00014BF012200228AB084F80C2803D184F83C
:10B2C000E0370AB070BD054604F6140690F9001088
:10B2D00030460EF099FAAD78002D37D1224B234835
:10B2E000C4F8A838012284F82028C4F81C580EF0AD
:10B2F00061FA03464FF47A70A4F8183813F04EFA46
:10B30000D4F81C3813B11A689B881383184D0FCDDD
:10B31000EC46ACE80F000FCDACE80F0095E8030059
:10B320008CE80300694630460EF0D2F8D4F81428B1
:10B33000136A002BFCD1D4F8B417C4F8D01701223B
:10B3400084F8E02784F8D4370AB070BD28460EF0A0
:10B35000EBFC05460028C1D01E23C3800921FFF75E
:10B360004FFEBBE728190020E4200020801A0600C9
:10B370000440060870B50C4682B015460646002803
:10B3800039D0036803F13F4303F57E039B0A1B4A50
:10B39000134493F83C0751F0C3FDB2880092B2FA0F
:10B3A00082F304F003028DF80420C4F381023068B4
:10B3B0008DF80520C3F11F03C4F30012C4F3411438
:10B3C0008DF80740C3F3CC0400EB840403F00703BB
:10B3D0008DF806209B00226A0F269D4006FA03F393
:10B3E00022EA03032362226A1543694625624DF06F
:10B3F00025FB02B070BD4FF0FF33C8E7C038060828
:10B4000000B1B7E7704700BF2DE9F043774D05EB7A
:10B41000001683B0D6F8603B002B00F09380044602
:10B420004FEA001896F8680B51F07AFD96F8683BE1
:10B43000590903F01F0203294FF0010303FA02F335
:10B4400000F09880042900F0858002297DD005EB6A
:10B450000803013493F8640B0EF066FCE4B28146F5
:10B4600010B112238371C47105EB080393F8650BC7
:10B470000EF05AFC074610B11323C471837105EB1B
:10B48000080393F8660B0EF04FFC064610B1142328
:10B49000C47183714544484695F8672B01924A214F
:10B4A000FFF7AEFF019A38462A21FFF7A9FF019A5C
:10B4B0000A213046FFF7A4FFD5F8602B4C4B9A4287
:10B4C0005DD04C4B9A424AD04B4B9A4262D04B4B88
:10B4D0009A426AD04A4B9A4272D04A4B9A427AD0E8
:10B4E00049499088B1F8CE42B1F8CC32B1F8D65281
:10B4F0002343B1F8D0422343B1F8D24220F00300F5
:10B500002343B1F8D4420004000C2343B1F8D842DD
:10B5100090802B4310882343B1F8DA42B1F8DC1253
:10B5200000F44150234303439BB21380938B23F4D5
:10B5300000631B041B0C9383118213889BB243F09E
:10B540004003138003B0BDE8F083304A516A0B43D7
:10B5500053627CE72D4A11690B43136177E703F5CA
:10B560000033196A41F480411962196A21F480415B
:10B570001962B5E7254A116A0B43136267E703F5C1
:10B580008433596A41F480515962596A21F48051D7
:10B590005962A5E703F5FE33196A41F400411962C7
:10B5A000196A21F4004119629AE703F58233596A56
:10B5B00041F400515962596A21F4005159628FE7F0
:10B5C00003F56843596A41F480115962596A21F4BC
:10B5D0008011596284E703F56443596A41F400110C
:10B5E0005962596A21F40011596279E7281900203B
:10B5F0000030014000380040003C00400034014071
:10B6000000500140005401408801002000380240F1
:10B61000431C00F0A8802DE9F04F00EB8003C44FDD
:10B62000DA0087B057F8029081000546019107EBD8
:10B63000C303B9F1000F04D09C68002C4BD0A17952
:10B6400011B107B0BDE8F08FD3F80CA0BAF1000F2C
:10B6500000F095819AF80630002BF2D11832B81814
:10B66000D9F80480BB50691CC0E90133C3601523BD
:10B67000A371C9B21623E1718AF807108AF806305F
:10B6800099F8180051F04CFCB8F804302268A188F1
:10B6900023F440731B041B0CA8F80430DAF80030C4
:10B6A0001183BAF804201A8311212046FFF7A8FC61
:10B6B00011215046FFF7A4FC09264FF0330B24B1AB
:10B6C0002268A1881069014231D1BBF1010B45D03C
:10B6D00053F026FAF3E7D3F80CA0BAF1000F00F00C
:10B6E000A4819AF80630002BABD11832BB18D9F8D8
:10B6F0000480BC50C3E90144DC6016238AF806309C
:10B700006B1C8AF8073099F8180051F009FCB8F85A
:10B710000430BAF8042023F440731B041B0CA8F86F
:10B720000430DAF800301A83C2E7A1882268518316
:10B7300053F082FC2368A2881A8353F07DFC013EFB
:10B74000BBD1332624B12368A28819690A420DD1DE
:10B75000013E00F0FB8053F0E3F9F3E7002CE4D165
:10B7600053F06AFCE9E77047A28823685A8353F0D4
:10B7700063FCBAF1000F00F02481DAF80030BAF867
:10B7800004205A8353F058FC002C00F0EE8023680C
:10B79000A2881A8353F050FCDAF80030BAF804207B
:10B7A0001A8353F049FC2368A2881B691A4240F0AF
:10B7B000A080019B2B4407EBC3039A7C002A40F036
:10B7C00095801A7C12212046FFF7D4FD019B2B4463
:10B7D00007EBC3039B7C002B00F08F803221BAF172
:10B7E000000F07D0019B2B4407EBC30350465A7C44
:10B7F000FFF7C0FD4F4B984500F0EF804E4B98454A
:10B8000000F0F6804D4B984500F0FD80019B2B44E5
:10B8100007EBC3074FF47A73BC8A03FB04F4B8F850
:10B82000043023F440731B041B0CA8F80430B8F850
:10B8300000309BB243F00103A8F80030B8F8045080
:10B8400002A84DF045F925F03F0504993C4B2D0425
:10B85000A3FB01232D0C45EA9345A8F80450B8F842
:10B86000002022F001021204120CA8F80020354A30
:10B87000980C9442034642DC6200B1FBF2F292B2B1
:10B880000133042A38BF0422A8F82030A8F81C206D
:10B89000B8F800309BB243F00103A8F80030B8F8C4
:10B8A000003023F4816323F002031B041B0C4FF4CC
:10B8B000804143F48063A8F80030A8F80810B8F875
:10B8C000003023F080031B041B0C0022A8F800307A
:10B8D00099F81A00114651F023FA002299F819003C
:10B8E000114607B0BDE8F04F51F01ABA1A7C322168
:10B8F00069E7DAF800301B695BE712216FE704EBB8
:10B900004404B1FBF4F18AB2C1F30B0109B942F06E
:10B9100001020D494FF4967300FB03F3A1FB0313DF
:10B920009B09013342F40042A8F82030AEE700BF83
:10B93000281900200054004000580040005C0040DE
:10B9400083DE1B43A0860100D34D6210002C7FF4E0
:10B950000BAF53F071FBBAF1000F5FD0DAF8003093
:10B96000BAF804205A8353F067FB53F065FBDAF80A
:10B970000030BAF804201A8353F05EFB26E7183231
:10B98000BB18D9F8048047F802A0C3E901AAC3F89C
:10B990000CA01523A371431CE37199F8180051F012
:10B9A000BFFAB8F80430A28823F440731B041B0CC0
:10B9B000A8F80430236811211A832046FFF720FBE2
:10B9C0007AE653F039FB2368A2881A8353F034FBDC
:10B9D00053F032FB23681B69EBE603F5F2331A6A76
:10B9E00042F400121A621A6A22F400121A620DE777
:10B9F00003F5F0331A6A42F480021A621A6A22F4DA
:10BA000080021A6202E703F5EE331A6A42F400027A
:10BA10001A621A6A22F400021A62F7E653F00CFB6B
:10BA200053F00AFB53F008FBD0E61832BB18D9F8E4
:10BA3000048047F802A0C3E901AAC3F80CA099F852
:10BA4000180051F06DFAB8F8043023F440731B0469
:10BA50001B0CA8F804302FE62DE9F84307460FF039
:10BA600031F8DFF84C8007EB8709044608EBC9057D
:10BA700042F20F7604E00FF025F8031BB3420ADC14
:10BA80006B7E002BF7D108EBC90898F8180080F0FE
:10BA90000100BDE8F883B8F8903B013338469BB20B
:10BAA000A8F8903BFFF7B4FD0020BDE8F88300BF85
:10BAB0002819002070B500EB8003274D05EBC30269
:10BAC00055F833305C68A38A84B09BB20393039B20
:10BAD00013F4706F1CBF01231376039B13F4E06F04
:10BAE0004FEA80060CD1A38A304423F4706305EB3F
:10BAF000C0051B041B0C0022A3826A7604B070BD33
:10BB0000238BA38823F480631B041B0CA380039B5B
:10BB10009A05E8D423889B05E5D42388D9050FD559
:10BB20002388DA05FCD423889BB243F40073238076
:10BB300023889B05FCD40190FFF76AFD0198D2E7AA
:10BB400023889BB243F400732380A38823F44073BB
:10BB50001B041B0CA380C6E7281900200020A9E7BE
:10BB60000120A7E70220A5E72DE9F84F2F4F00EBB2
:10BB7000800407EBC404D4F80480B8F1000F04D0AB
:10BB80009A46637E03F0FF0923B14FF0000948464F
:10BB9000BDE8F88F0E46934605460EF093FF0A9BCC
:10BBA0007600F6B2C4E908330123A67684F81BB008
:10BBB00084F81D90A37784F81CA0637684F818900D
:10BBC000B8F804209105064622D4B8F80030DA050A
:10BBD00012D442F20F7404E00EF074FF831BA342F0
:10BBE0001ADCB8F800309B05F6D4B8F800309BB2E8
:10BBF00043F48073A8F80030B8F804309BB24FF0DB
:10BC0000010943F44073A8F804304846BDE8F88FB2
:10BC100099464846BDE8F88FB7F8903B01339BB290
:10BC20002846A7F8903BFFF7F3FCB0E7281900205F
:10BC3000F8B590F871301C09013C052C0FD81B4E4B
:10BC400006EB44020546B2F86C0703F00F0340FA16
:10BC500003F2D20703D595F87C70012F01D00120A3
:10BC6000F8BD07FA03F3013B1840344455F0DCFFFC
:10BC700094F878270E4C104454F8302004EBC0049C
:10BC80001069A3881840EBD0EB6E002285F87C2069
:10BC900093F8212020460221FFF76CFB2A6E93893E
:10BCA0009BB243F0080338469381F8BDC0380608BC
:10BCB000BC240020094BD3F8942ED3F8981E40F6EC
:10BCC0002A00002350604B620B889BB243F00103B3
:10BCD0000B80136843F0010313607047281900209C
:10BCE0001D4B1E48196C1E4A10B441F080510124AE
:10BCF000196404625321FF24CA20546250625162C5
:10BD00005B6FDB0085B017D4164804230021029135
:10BD10000290029A1A440292029A04331C2B116078
:10BD2000F5D103910390039B0393039B0E4A1A6082
:10BD300005B05DF8044B70470A4B00220192019355
:10BD4000019B0193019A084B12689A42DCD105B01D
:10BD50005DF8044B704700BF0038024000000E42FF
:10BD600000280040502800403166654210B5174C4D
:10BD700084B00139002389B2A042ADF80C30ADF88F
:10BD800006308DF80E30029113D0114B984210D02E
:10BD900003F5804398420CD003F58063984208D0A5
:10BDA00003F58063984204D00A4BD3F8AC375B08A4
:10BDB00002E0084BD3F8AC37B3FBF2F201A9013A29
:10BDC000ADF804204DF0F4F804B010BD00040140BB
:10BDD000000001402819002030B50446006EA2681A
:10BDE000838923F400531B041B0C8381637995B072
:10BDF00013F0040F4FF00001019214BF4FF4805272
:10BE00000A46ADF808201A031B0203F48063ADF85C
:10BE10000C302379ADF80E1002F40052ADF80A2070
:10BE2000DA0744BF0422ADF80E209B07ADF81010CE
:10BE300005D5BDF80E3043F00803ADF80E3001A96A
:10BE40004DF0C8F96279236ED50700F18B8012F0AE
:10BE5000080F9A8A48D092B242F008029A829A89D0
:10BE600092B242F400529A812279D00732D5E06B27
:10BE7000002800F089800023E26D0893CDE90C339F
:10BE8000CDE91033CDE912334FF480750A9363691D
:10BE9000E1680E9506920793626C05924FF48063F9
:10BEA0004FF480350B9309910F954CF075FE05A961
:10BEB000E06B4CF007FFE26B216E136843F0010367
:10BEC00013608B8A9BB243F040038B8253682279C4
:10BED0009BB2636591070DD4226E93899BB243F4A4
:10BEE0000053938115B030BD22F008021204120CE9
:10BEF0009A82B4E7206C002852D02369A26D09937E
:10BF0000A36CCDE90532402300254FF4803108931E
:10BF10004FF480630B930F91CDE90C55CDE910558B
:10BF2000CDE9125507950A950E954CF035FE206C1B
:10BF300005A94CF0C7FE236C226E586940F08000C2
:10BF40005861186840F0160018605D60938A9BB2D3
:10BF500043F0800302F10C0193820B6843F040032D
:10BF60000B60BAE71E498B4224D0A1F54C418B42AD
:10BF70001ED001F580618B421ED102200121FEF707
:10BF800003F96279236E62E74FF6DF711980D96891
:10BF900041F02001D960D96841F01001D96099E7DA
:10BFA000226ED36843F0800302F10C01D360D4E722
:10BFB0000120E3E70020E1E701F580618B420AD030
:10BFC00001F580618B4208D001F544418B427FF43A
:10BFD0003EAF0520D2E70320D0E70420CEE700BF24
:10BFE000001001402DE9F84F4F4C04EB8004D4F8C9
:10BFF0002C4A002C00F08180E56E002D79D01F4680
:10C00000EB6A6361AB6AA3616B8EE3602B8E236185
:10C010006B682366454B2360454BA160A3660646CB
:10C02000204690460EF014F894F871000DF07CFE56
:10C03000814695F8200094F870B0A24600284FD1B0
:10C0400002213B0784F87C1037D418F0020F11D07E
:10C05000B9F1000F0ED00B2389F806303A0606F12D
:10C06000010389F807304AD495F821204846222157
:10C07000FFF780F918F0010F04D1E26B9AB1504636
:10C08000BDE8F88F58460DF04FFE0028F5D00C2281
:10C090000136C671827195F821202221FFF76AF9D5
:10C0A000E26B002AEBD195F8241095F8220089095B
:10C0B00050F036FE5046BDE8F88F0136F6B2B9F1C1
:10C0C000000FDAD00B23780689F8076089F806306C
:10C0D00009D595F8212042214846FFF74BF9CCE7D6
:10C0E00050F01EFFACE7FB0695F82120F4D4122196
:10C0F000F2E7AA465046BDE8F88FA246BFE794F89B
:10C1000071000DF011FE226E938923F008031B04C9
:10C1100001211B0C938184F87C100028AAD02021D7
:10C12000FEF76EFFA6E700BF0400001040400608BF
:10C1300031BC0008BFF34F8F0549064BCA6802F4B3
:10C14000E0621343CB60BFF34F8F00BFFDE700BF3A
:10C1500000ED00E00400FA0508B572B6FFF7EAFF4B
:10C1600000B583B00D49002200920091009B0C3372
:10C170000093009B1B68012B02D003B05DF804FB09
:10C1800001920191019B06490C330193019B1A60B6
:10C190000B6883F308884B689847FEE750280040F7
:10C1A0000000FF1F38B5FFF79BFDFFF7D9FF012007
:10C1B0004CF00AFE714A936823F00303936093687E
:10C1C00013F00C0FFBD113686C49002842D143F0E7
:10C1D0000103136041F288330A6895075DD4013B7F
:10C1E000FAD1674C674D654B674AEA60596F674AF9
:10C1F000C4F8B41EAA60596B654821F080015963E8
:10C20000596F41F080715967196B41F4CE01196380
:10C210005A6B5A639A6B9A631A6C02431A64596C8C
:10C220005C4A0A435A640EF005FCD4F8AC375A4A0B
:10C23000A2FB03239B09013BB3F1807F09D24FF09E
:10C24000E022F02053610021072385F8230091614B
:10C25000136138BD43F4803313600A68940341F2DC
:10C26000883304D4013BBCD00A689403FAD5444C0B
:10C270004A4A4B4BB0FBF3F3B0FBF2F0B3EB400F89
:10C2800018BF18464FF48002B3FBF0F3C4F8B02E89
:10C29000C4F89C0EC4F8A03E09E0394C00210822E5
:10C2A0000223C4F8B01EC4F89C2EC4F8A03E02209D
:10C2B0004CF08AFD03280FD83A4BD4F8A01E03EBAC
:10C2C000C0008588C2884388C4F8A85EB3FBF1F338
:10C2D000C4F8AC2EC4F8A43E284B33491A6C42F083
:10C2E00080521A640A6842F440420A609A689A606E
:10C2F0009A6842F400429A609A6842F4A0529A60A6
:10C30000D4F8B00ED4F89C2ED4F8A41E024342EA0E
:10C310008112D4F8A81ED4F8AC0E490842EA006293
:10C32000013942EA01425A601A6842F080721A608A
:10C330001A689201FCD51D4A40F205711160996896
:10C3400021F003019960996841F00201A2F5806231
:10C350009960936803F00C03082BFAD1D4F8A00E6F
:10C360001349D823B3FBF0F39B0143F000530120A2
:10C37000C2F884308866FCF713FB33E700380240CC
:10C380002819002000ED00E00005FA05000000205B
:10C39000FFC9FE36335F0700D34D621080841E0054
:10C3A00040420F007040060800700040003C024010
:10C3B0000000474210B584B000230446ADF80C30AD
:10C3C0000068ADF806308DF80E3003F18043013976
:10C3D00003F5823389B29842029114D0A3F58063A9
:10C3E000984210D003F5804398420CD003F5806347
:10C3F000984208D003F58063984204D0204BD3F8CC
:10C40000AC375B0802E01E4BD3F8AC37B3FBF2F35A
:10C4100001A9013BADF804304CF0CAFD2168194A6E
:10C420000B8819489BB243F001030B80002301E005
:10C4300050F83320914208D001330E2BF8D1002060
:10C4400004B0BDE81040FCF71FBA104A02EBC3036A
:10C4500093F8D5472046FCF717FA1B2C05D1192075
:10C4600004B0BDE81040FCF70FBA2E2C08BF2C20FA
:10C4700004D104B0BDE81040FCF706BA04B010BD0A
:10C48000281900200000014090400608C038060826
:10C4900070B50468A30AA3F58013522B51D83C4D04
:10C4A0002B4493F8F4530D2D4BD84079860800297E
:10C4B00054D005EB850305EB4303B4F80CE04FEAD9
:10C4C000900C33440220334E00FA0CF040EA0E0088
:10C4D00006EB830C80B2CCF84815CCF85825A08127
:10C4E000EFF3118C502383F312882C2305FB03F305
:10C4F000F118D1F8442562B3274BC1F868250432FE
:10C5000026482C2105FB01F1084414310B4453F853
:10C51000041B19B1116053F8042C04329842F6D16F
:10C5200000235FFA8CFC13608CF311882C2303FB2F
:10C530000565D5F868352BB1A3899BB243F001039B
:10C54000A38170BDA38923F001031B041B0CA381ED
:10C5500070BD03F12402104B1A44D1E7B4F80CC0AB
:10C5600005EB8503304605EB43034FF0020E3344E1
:10C570001FFA8CFC074E0EFA00F02CEA0000A08196
:10C5800006EB8300C0F84815C0F85825A8E700BF9F
:10C59000C0380608281900206C1E0020901E0020BC
:10C5A00001490248FDF75AB86C1E00200000014006
:10C5B00010B5064C064804F24451FDF74FF804F557
:10C5C000DA610448BDE81040FDF748B8281900209A
:10C5D000000001400044014002494FF08040FDF757
:10C5E0003DB800BF981E002001490248FDF736B84B
:10C5F000C41E00200004004001490248FDF72EB887
:10C60000F01E00200008004001490248FDF726B84E
:10C610001C1F0020000C004001490248FDF71EB815
:10C62000A01F00200004014010B5064C064804F588
:10C63000CF61FDF713F804F254710448BDE81040CF
:10C64000FDF70CB82819002000040140001C004030
:10C6500001490248FDF702B8CC1F0020004001400C
:10C6600001490248FCF7FABF24200020004801409D
:10C6700001490248FCF7F2BF50200020001800409A
:10C6800001490248FCF7EABFA82000200020004032
:10C69000F8B5164D1648174F00214FF41A7257F08F
:10C6A000AAF805F688064FF08041A5F18C043A46B9
:10C6B000002301E054F8332091420BD001330E2BBC
:10C6C000F8D100201C3550F02BFCB5420CD055F8A9
:10C6D0001C1CECE7084A02EBC3031C3593F8D40793
:10C6E00050F01EFCB542F2D1F8BD00BF1C41060857
:10C6F0006C1E002000000140C038060810B50C294F
:10C7000037D8DFE801F097363636663636363736B4
:10C7100036360700038C5488B2F80CE023F48053BB
:10C720001B041B0C0384038CB0F804C0818B21F420
:10C73000E6414EEA040E0904148823F40053090C60
:10C7400041EA04211B04754C1B0C43EA0E33A04242
:10C750001FFA8CFC9BB289B200F0AE8004F58064B5
:10C76000A04200F0A9809268A0F804C0818302640E
:10C77000038410BD038CB2F80CC0548823F480737A
:10C780001B041B0C0384038CB0F804E0818B23F49E
:10C7900000731B044CEA040C21F073011B0C43EAE8
:10C7A0000C230904B2F800C0090C41EA0C0C5B49E7
:10C7B00088421FFA8EFE9BB268D001F580618842E4
:10C7C00064D09268A0F804E0A0F81CC0C26303849F
:10C7D00010BD038CB2F80CC0548823F010031B0466
:10C7E0001B0C0384038CB0F804E0018B23F02003BE
:10C7F0001B044CEA040C21F4E6411B0C43EA0C1325
:10C800000904B2F800C0090C41EA0C211FFA81FCAE
:10C81000424988421FFA8EFE9BB269D001F58061C1
:10C82000884265D09268A0F804E0A0F818C082633E
:10C83000038410BD038C5488B2F80CE023F001038C
:10C840001B041B0C0384038CB0F804C0018B21F083
:10C8500073014EEA040E0904148823F00203090C44
:10C860001B0421432D4C1B0C43EA0E03A0421FFA6C
:10C870008CFC9BB228D004F58064A04224D092683E
:10C88000A0F804C001834263038410BDD189548A97
:10C8900023F4006343EA0121138A2EF4405E23430C
:10C8A0004EEA031E94884FF6FF330B4043EA0423FD
:10C8B0001FFA8EFE9BB284E7148A2CF4804C4CEA5B
:10C8C000841C1FFA8CFC4EE7D489B2F810E023F0E8
:10C8D00008032343548A2CF4407C4EEA040E9488C7
:10C8E00023F004034CEA0E0C1FFA8CFC2343C6E72A
:10C8F000D189548A23F0800343EA0111138A2EF46C
:10C90000406E23434EEA830E94884FF6BF730B406C
:10C9100043EA04131FFA8EFE9BB283E70000014036
:10C920002DE9F04FA24BDFF8A49293F8CA3EA14E36
:10C93000A14F8FB0CDE90139013BDBB20093002557
:10C94000DFF88CB2DFF88CA25B46D3469A464FEAFA
:10C950009A23A3F58013522B4CD8334493F8F43325
:10C960000D2B47D8FC56019B012B40F00181012C77
:10C9700035D14FF000084146204612F0A5FF13F0D4
:10C9800031F8037813B1542B40F0F98008F1040812
:10C990001FFA88F8B8F1100FEDD14FF0000E8DB3EB
:10C9A000494600200CE0334493F8F4330D2B0ED8A5
:10C9B000FB56A3420ED00130A84201F580711EDA69
:10C9C0008A6813689B0AA3F58013522BEBD90023C6
:10C9D000A342F0D153799BF805209A42EBD1774BD3
:10C9E0005B454BD05BF81CAF4FEA9A23A3F580134D
:10C9F000522BB2D9009B012BF1D90024B9E7BEF12B
:10CA0000000FECD15846FBF7BDFCC3B2022B9BF8DC
:10CA100005C000F23483431C5BB203EB43034FEACF
:10CA2000830E644B664903F5727004E0984200F08F
:10CA3000268353F82C1F5145F8D11A796245F5D158
:10CA400053F80E40002CF1D05E4800234268A24209
:10CA500003F1010300F08980102B00F12400F5D1CF
:10CA60004FF0FF33584A03EBC30302EB830393F801
:10CA7000A830002BB3D1029BC3F808B0029B01354C
:10CA800003F58073042D02937FF45AAFDFF848B1A9
:10CA90000BF59E730027ABF5816A9846DAF8243AC5
:10CAA000BB425FDDDBF80C50002D5BD09BF81030F3
:10CAB000A88802932B68DAF80460019303F13F41E0
:10CAC000B0FA80F301F57E010393002EC3F11F033A
:10CAD0004FEA9121009340F38480002302E0013368
:10CAE000B3427BD01C0259F804208A42F7D14C444F
:10CAF0000099029B8BF8103003260137CBF8041005
:10CB0000CBF80C50CBF81840AE71EF71636CE26C4F
:10CB10000D4649008E401E43012303FA01F11143E3
:10CB20009AF800206664E1647AB303FA05F11A46C4
:10CB3000236D0B432365019B89B21883D4F8A000B1
:10CB4000FBF75CFC2046FBF7AFFD0123082F8BF8B9
:10CB50001C308BF81D3088F811300BF1200B08F1D8
:10CB600018089BD10FB0BDE8F08FDBB2013B79E72D
:10CB7000022B7FF4FEAE082C3FF4FBAE2FE74FF004
:10CB8000010E002D7FF40CAF29E70399C1F12F05A9
:10CB9000009903FA05F58B4099B2236D2B43236569
:10CBA000019B5883D4F8A000FBF728FCCAE700BF1C
:10CBB00028190020C0380608D4AF0608684A0608BD
:10CBC0000000014014020020880100200C00001029
:10CBD00000040140884906080C040010032B00F3F0
:10CBE0001F820AEB0623320218690492002800F023
:10CBF0003F8299600131CAB283F80521069254221E
:10CC000083F804210136026805924479CAF8046069
:10CC1000FBF7B8FB934AC3B2022B92F8E1EE8446CD
:10CC200000F22D82461C76B206EB46068E498F48EE
:10CC3000059AB600002305E00133172B00F01F8290
:10CC400051F82C0F8242F7D10879A042F4D18859CB
:10CC50000028F1D02C2101FB03F30CEB4C0C03EB6F
:10CC60008C0C814B63441969049B5344C3E906014E
:10CC70007F4B00211E461C466368984216D0013146
:10CC8000102904F12404F7D17A4B93F88420002A68
:10CC900000F0E7817849794A794BCAF8681ACAF8EE
:10CCA000602ACAF8703A0FB0BDE8F08F01F1010CAC
:10CCB0005FFA8CFC6F4B07960CF1FF3C0CEBCC0C35
:10CCC00003EB8C0C9CF8A8300593002BE2D1049E5A
:10CCD000069B8CF8A930F31103EB262000EB001320
:10CCE00068488C2400EB83003112674B04FB01F190
:10CCF00003EB41010AEB0603C3E93C145421019EF6
:10CD00008CF8A8103321C3F8AC10DE60C3F8A8007B
:10CD10005E4B04999A4209EB010400F07681534B73
:10CD20009A4200F0728103F580439A4200F06D81CF
:10CD300003F580639A4200F0688103F580639A42AC
:10CD400000F06381474BD3F8AC07BEF1060F4FEA02
:10CD5000500000F061814E4B4E49BEF1070F18BFE5
:10CD60009C464D4B08BF8C464C4918BF1946B0FB3A
:10CD7000F1F1B0FBFCFC1046049A01390AEB020306
:10CD800089B20CF1FF3CA3F8B0C0A3F868104FF0D3
:10CD900000060193A165002302F154014944A4F85F
:10CDA0005C6063654CF004F9019B3D4A1B6901938B
:10CDB000186803889BB243F08003038003880992BC
:10CDC0000A210B914FF48072022123F00103CDE977
:10CDD0000C121B04ADF828601B0C019E03807179B6
:10CDE00009AAFFF78BFC3079002840F02281049BD0
:10CDF000079E0AEB030200231069D2F818C00168ED
:10CE00000A8892B242F001020A807268944503F1E6
:10CE1000010300F00A81102B06F12406F5D14FF032
:10CE2000FF33144A1F4E03EBC30302EB83031E4A76
:10CE3000D3F88C30B3420CBF4FF400134FF480038F
:10CE4000166B33431363427918480C2A9BBF184B67
:10CE500003EB42030026B3F8CC60049B53449E824C
:10CE600000232EE028190020C038060800000140E9
:10CE700014020020880100200976010805760108C7
:10CE8000117601080C2800203C2B002000040140F2
:10CE90004495080010552200D0DD060040771B00A5
:10CEA00060000100006002400038024014060010DB
:10CEB000B8490608914200F0E0800133042B00F0ED
:10CEC000E18050F83320002AF4D1DAF80C26013240
:10CED000CAF80C260AEBC302DB00C2F810160344A2
:10CEE0006A499A88059816439E80049B0AEB0306BC
:10CEF00090222346FDF798FFB0690268002342F0B4
:10CF000010020260C4E92533A367C4F88830C4F86E
:10CF10009C30F26962664FF48062E26704214FF44C
:10CF20000032C4E9232140222267D6F8AC20626790
:10CF3000F268049B1832A2664FF48052C4F8802035
:10CF4000D6F8A820E26603F164014FF48042494418
:10CF5000C4F884204BF0B6FEB069049BD0F800E022
:10CF6000C4F81CE0D0F814E0C4F820E0D0F804E0E5
:10CF7000C4F824E003F1AC01D0F808E0C4F828E0DC
:10CF80000023D0F80CE0C4F82CE0C4E93733C4F82F
:10CF9000B830C4F8C030C4F8D030C4F8E430F36915
:10CFA000C4F8AC304FF48063C4F8C4304FF4403C54
:10CFB0000423C4E935C3D6F8F430C4F8BC30F368B0
:10CFC0001033C4F8B0304FF40063C4F8C830D6F85A
:10CFD000F030C4F8B4304FF48042C4F8CC20494457
:10CFE0004BF070FEB369A8881A6822635A696263BD
:10CFF0005A68A2639A68E263DA6822641A6842F0A7
:10D0000010021A602B68019372E5214BBEF1060FE6
:10D01000D3F8AC077FF49FAEDFF87CC01D49A6E6CD
:10D020001B4A032382F8E03E34E6DBB20593013B62
:10D03000F7E60CF079FE069038B1019B0221DA790F
:10D04000FEF798F9069B5422DA80019B1A68B2F821
:10D0500044306FEA43436FEA53439BB2A2F8443033
:10D06000C5E6542283F88420069A83F8852011E6C9
:10D07000074A022382F8E03E0CE6DB002FE700239C
:10D080005B68FFDE00239B88FFDE00BF458400084D
:10D0900028190020A0BB0D00882A11000C2911D8E6
:10D0A000DFE801F0231010101910101011101010EB
:10D0B0000700838B23F400631B041B0C43EA02224A
:10D0C00092B282837047838B23F008031B041B0CEE
:10D0D0001A4382837047038B23F400631B041B0CE9
:10D0E00043EA022292B202837047038B23F00803C3
:10D0F0001B041B0C1A430283704700BF2DE9F04F3D
:10D10000DFF870B29BF8004087B024B901242046B4
:10D1100007B0BDE8F08F934ED6F8B4570DF0FEFC83
:10D120009BF8B43A0390002B00F058828E4AA2FB81
:10D1300005328E4B5209A3FB0213DB0803EB83037A
:10D14000A2EB4303DAB204920BF23C6202EB8303DC
:10D1500000930BF61C1306F1DC0401934FF0000959
:10D16000924635E03B680293009B5C330093019B41
:10D170003046143301934BF00FFD7A4B02988C220A
:10D1800002FB0933002583F8D05079792A46FFF74E
:10D1900085FF22467979FFF7B1FA79790822FFF7FE
:10D1A0007DFF402344F83C3CA4F1480130464BF05D
:10D1B00089FD336843F0100333609BF8B43A09F1FA
:10D1C000010999450AF15C0A04F18C0480F2D480CB
:10D1D000DBF83836039AD31A04D454F8082C934257
:10D1E000C0F2AB815F4B54F8587C266A8C2202FB5C
:10D1F000093393F8D030002BB4D03968736834F811
:10D20000542C02911FFA83FE8B89CEF1160E9BB22D
:10D2100023EA0203BEF1070F8B81A5D9DBF824397D
:10D220000133CBF82439A36A05939C4600225CF8AD
:10D23000045B012190461BE0DCF80000B8F1140FFC
:10D24000A0EB05031DDC13F1080548BF03F117052A
:10D250002B1108EB25180546581E013102FA03F37D
:10D26000012282408E4542EA03020CF1040C08D3ED
:10D270008E45E1D8C8F11503DCF800504FF01508D1
:10D28000EAE7B8F1150F60D13948C2F38423C2F33D
:10D29000441100EB830300EB8101D3F8E830D1F8AF
:10D2A000E8101B0243EA011302F01F0100EB8101A9
:10D2B000C2F3C43200EB8202D1F8E810D2F8E820C1
:10D2C0000B4343EA023383EA132282EA121202F08A
:10D2D0000F020F2A39D1C3F30F134FF6FF72934297
:10D2E00033D0B3F5606F00F03681019A93819AF8DC
:10D2F0005820049DAA4211D00098DAF800208168D5
:10D30000521ACAF80020016BDAF80420521ACAF83F
:10D3100004200022826002638AF85850DAF8002064
:10D3200000990132CAF800208A6801328A604FF6FB
:10D33000FF7293427FF418AFDAF804300133CAF871
:10D3400004300B6B01330B630EE7DBF8203901333C
:10D35000CBF82039B9F1000F00F0E5804FF6FF73EC
:10D36000C5E700BF281900201F85EB51CDCCCCCCE0
:10D37000B84906080400001001228BF8202ACBF8D7
:10D380003856002B3FF4C2AE974890F88C108907AE
:10D3900000F1BE80D0F88410086849798A40018C79
:10D3A00092B289B221EA02010184018C89B20A4356
:10D3B000012B02843FF4AAAE8B4991F818219707FC
:10D3C00000F1C080D1F8102110685479018C01223D
:10D3D00089B2A24092B221EA02010184018C89B291
:10D3E0000A43022B02843FF491AE7F4991F8A421B5
:10D3F000960700F1C180D1F89C2110685479018C06
:10D40000012289B2A24092B221EA02010184018C78
:10D4100089B20A43032B02843FF478AE724991F833
:10D420003022950700F1B180D1F828221068547994
:10D43000018C012289B2A24092B221EA0201018448
:10D44000018C89B20A43042B02843FF45FAE664923
:10D4500091F8BC22940700F1A180D1F8B4221068A1
:10D460005479018C012289B2A24092B221EA0201D0
:10D470000184018C89B20A43052B02843FF446AE35
:10D48000594991F84823900700F19180D1F8402341
:10D4900010685479018C012289B2A24092B221EA2B
:10D4A00002010184018C89B20A43062B02843FF4F5
:10D4B0002DAE4D4991F8D423920700F18180D1F827
:10D4C000CC2310685479018C012289B2A24092B217
:10D4D00021EA02010184018C89B20A43082B0284EB
:10D4E0007FF414AE404A92F860349B0771D5D2F8AD
:10D4F00058240423116850790A8C83409BB292B25D
:10D5000022EA03020A840A8C92B213430B84FDE5DB
:10D51000354AD2F8842010685479018C0422A24044
:10D5200089B292B23EE705993048582256F000F988
:10D530003B6802934FF6FF73D9E60024204607B0FC
:10D54000BDE8F08F284AD2F8102110685479018C78
:10D55000042289B23DE7244991F8DD2402EB42021E
:10D5600001EBC2024A4492F8ED240D2A7FF4BDAECD
:10D57000019980228A77BAE61B4AD2F89C2110686A
:10D580005479018C042289B23CE7174AD2F8282248
:10D5900010685479018C042289B24CE7124AD2F8FF
:10D5A000B42210685479018C042289B25CE70E4AD7
:10D5B000D2F8402310685479018C042289B26CE7B8
:10D5C000094AD2F8CC2310685479018C042289B21C
:10D5D0007CE7054BD3F8582401238BE701228BF815
:10D5E000202ACBF8383692E528190020CC09001003
:10D5F0002DE9F04F002299B02F21074612F048FA8A
:10D6000000B3BE4ED0F80080C6F8988E0446FDF7F1
:10D610000FFB0246B0B1D0F804C0C6F894CEBCF1FE
:10D62000000F0FD0B64D002329464868844501F10C
:10D63000240103F101030FD0102BF6D1B14B93F865
:10D64000840018B1002019B0BDE8F08F2F2283F8B4
:10D65000842083F88500F6E7DBB2DFF8A892013B6F
:10D6600003EBC30309EB830393F8A8A0BAF1000FFF
:10D67000E8D138469768DFF8C0B22F22A3F8A82077
:10D680000CF052FB2F220346CBF8800520B1DA8044
:10D69000E2792A21FDF76EFE9B4A9C49002301E0B6
:10D6A00051F83320904500F0228101330E2BF7D141
:10D6B00000204FF035FCD6F8980E954A038823F0E9
:10D6C00001031B041B0C9042038000F070818E4B01
:10D6D000984216D003F58043984212D003F5806338
:10D6E00098420ED003F580639842D6F8AC270AD052
:10D6F0008849B1EB520F4FEA520340F252810021A8
:10D700000AE0D6F8AC27834B9A4280F017814FF09D
:10D71000010C0021B2FBFCF37F4AADF804101B0A98
:10D720007E49A2FB03231A09A1FB021252084FF003
:10D7300000081B09ABF87E2501A952000293ABF843
:10D740007C25ADF80C80ADF806808DF80E804BF08E
:10D750002FFCCDE90688CDF82080A379ADF81480A0
:10D76000602204929A0740F1AF80DB0003F00803C7
:10D77000ADF81E300423ADF81430D6F8980E617958
:10D7800004AAFEF7BBFF61790822FFF787FCB0F817
:10D790004430D6F8948E6FEA43436FEA53439BB20A
:10D7A000A0F8443003889BB243F080030380A37940
:10D7B0006179028C9B074CBF042301238B409BB2F1
:10D7C00092B222EA03020284028C92B213430384CF
:10D7D00003889BB243F0010303802A46002351686B
:10D7E000884502F1240203F101037DD0102BF6D10C
:10D7F0004FF0FF3303EBC30309EB8309484AD9F821
:10D800008C3048498B420CBF4FF400134FF4800317
:10D81000116B0B43136300236A68904505F12405DF
:10D8200003F101035DD0102BF6D13F4960220023A4
:10D830005046FDF7F9FA40464BF0AEF9D6F8940E93
:10D84000036823F00103002503604BF0A5F9CDE93F
:10D850001455CDE91655D6F8983E0E951295627975
:10D86000D6F8940E099734331344304A0B92402271
:10D870000A930C924FF480434FF48052CDE9102369
:10D8800040F62A014FF440330D91139309A94FF448
:10D8900080630F934BF016FA6379D6F8981E0C2B21
:10D8A00004D8234A02EB4303B3F8CC508B89D6F853
:10D8B000942E9BB21D438D811368012043F0100309
:10D8C000136019B0BDE8F08F5B0003F00203ADF800
:10D8D0001C300123ADF812304FF48073ADF82030C6
:10D8E0004BE75FFA83FAA0E7DBB2013B82E7114A1C
:10D8F00002EBC30393F8D407DBE600BF281900202E
:10D900001402002088010020000001409040060819
:10D9100000040140006CDC02598B4F01ABAAAAAA9B
:10D920000038024000600240FD860008F44E0020EE
:10D93000B8490608C0380608202A0020254B98421E
:10D940000BD003F58043984207D003F580639842DB
